{
  "contractName": "Offer",
  "abi": [
    {
      "inputs": [
        {
          "internalType": "string",
          "name": "_songUrl",
          "type": "string"
        },
        {
          "internalType": "uint256",
          "name": "_songId",
          "type": "uint256"
        },
        {
          "internalType": "uint256",
          "name": "_limitDays",
          "type": "uint256"
        },
        {
          "internalType": "uint256",
          "name": "_minLikes",
          "type": "uint256"
        }
      ],
      "stateMutability": "payable",
      "type": "constructor"
    },
    {
      "anonymous": false,
      "inputs": [
        {
          "indexed": true,
          "internalType": "bytes32",
          "name": "requestId",
          "type": "bytes32"
        },
        {
          "indexed": true,
          "internalType": "string",
          "name": "videoUrl",
          "type": "string"
        }
      ],
      "name": "ApplicationFulfilled",
      "type": "event"
    },
    {
      "anonymous": false,
      "inputs": [
        {
          "indexed": true,
          "internalType": "bytes32",
          "name": "id",
          "type": "bytes32"
        }
      ],
      "name": "ChainlinkCancelled",
      "type": "event"
    },
    {
      "anonymous": false,
      "inputs": [
        {
          "indexed": true,
          "internalType": "bytes32",
          "name": "id",
          "type": "bytes32"
        }
      ],
      "name": "ChainlinkFulfilled",
      "type": "event"
    },
    {
      "anonymous": false,
      "inputs": [
        {
          "indexed": true,
          "internalType": "bytes32",
          "name": "id",
          "type": "bytes32"
        }
      ],
      "name": "ChainlinkRequested",
      "type": "event"
    },
    {
      "anonymous": false,
      "inputs": [
        {
          "indexed": true,
          "internalType": "bytes32",
          "name": "requestId",
          "type": "bytes32"
        },
        {
          "indexed": true,
          "internalType": "uint256",
          "name": "likes",
          "type": "uint256"
        }
      ],
      "name": "RequestLikesFulfilled",
      "type": "event"
    },
    {
      "inputs": [],
      "name": "applied",
      "outputs": [
        {
          "internalType": "bool",
          "name": "",
          "type": "bool"
        }
      ],
      "stateMutability": "view",
      "type": "function"
    },
    {
      "inputs": [],
      "name": "finishTime",
      "outputs": [
        {
          "internalType": "uint256",
          "name": "",
          "type": "uint256"
        }
      ],
      "stateMutability": "view",
      "type": "function"
    },
    {
      "inputs": [],
      "name": "limitDays",
      "outputs": [
        {
          "internalType": "uint256",
          "name": "",
          "type": "uint256"
        }
      ],
      "stateMutability": "view",
      "type": "function"
    },
    {
      "inputs": [],
      "name": "minLikes",
      "outputs": [
        {
          "internalType": "uint256",
          "name": "",
          "type": "uint256"
        }
      ],
      "stateMutability": "view",
      "type": "function"
    },
    {
      "inputs": [],
      "name": "song",
      "outputs": [
        {
          "internalType": "uint256",
          "name": "",
          "type": "uint256"
        }
      ],
      "stateMutability": "view",
      "type": "function"
    },
    {
      "inputs": [],
      "name": "songUrl",
      "outputs": [
        {
          "internalType": "string",
          "name": "",
          "type": "string"
        }
      ],
      "stateMutability": "view",
      "type": "function"
    },
    {
      "inputs": [],
      "name": "getBalance",
      "outputs": [
        {
          "internalType": "uint256",
          "name": "",
          "type": "uint256"
        }
      ],
      "stateMutability": "view",
      "type": "function"
    },
    {
      "inputs": [
        {
          "internalType": "string",
          "name": "_videoUrl",
          "type": "string"
        }
      ],
      "name": "applyToOffer",
      "outputs": [],
      "stateMutability": "nonpayable",
      "type": "function"
    },
    {
      "inputs": [
        {
          "internalType": "bytes32",
          "name": "_requestId",
          "type": "bytes32"
        },
        {
          "internalType": "uint256",
          "name": "_musicId",
          "type": "uint256"
        }
      ],
      "name": "fulfillMusicId",
      "outputs": [],
      "stateMutability": "nonpayable",
      "type": "function"
    },
    {
      "inputs": [
        {
          "internalType": "bytes32",
          "name": "_requestId",
          "type": "bytes32"
        }
      ],
      "name": "sleepCallback",
      "outputs": [],
      "stateMutability": "nonpayable",
      "type": "function"
    },
    {
      "inputs": [
        {
          "internalType": "bytes32",
          "name": "_requestId",
          "type": "bytes32"
        },
        {
          "internalType": "uint256",
          "name": "_likes",
          "type": "uint256"
        }
      ],
      "name": "fulfillLikesCount",
      "outputs": [],
      "stateMutability": "nonpayable",
      "type": "function"
    }
  ],
  "bytecode": "0x60806040526001600455730b179553e46531397a4092501033dc8883b2235c600660006101000a81548173ffffffffffffffffffffffffffffffffffffffff021916908373ffffffffffffffffffffffffffffffffffffffff1602179055506000600860146101000a81548160ff0219169083151502179055506040516200216338038062002163833981810160405260808110156200009e57600080fd5b8101908080516040519392919084640100000000821115620000bf57600080fd5b83820191506020820185811115620000d657600080fd5b8251866001820283011164010000000082111715620000f457600080fd5b8083526020830192505050908051906020019080838360005b838110156200012a5780820151818401526020810190506200010d565b50505050905090810190601f168015620001585780820380516001836020036101000a031916815260200191505b5060405260200180519060200190929190805190602001909291908051906020019092919050505062000190620002d660201b60201c565b33600760006101000a81548173ffffffffffffffffffffffffffffffffffffffff021916908373ffffffffffffffffffffffffffffffffffffffff16021790555083600a9080519060200190620001e9929190620003c4565b508260098190555081600b8190555080600d819055506000600660009054906101000a900473ffffffffffffffffffffffffffffffffffffffff1690508073ffffffffffffffffffffffffffffffffffffffff1663a553269b306040518263ffffffff1660e01b8152600401808273ffffffffffffffffffffffffffffffffffffffff1673ffffffffffffffffffffffffffffffffffffffff168152602001915050600060405180830381600087803b158015620002a657600080fd5b505af1158015620002bb573d6000803e3d6000fd5b50505050603c83024201600c81905550505050505062000473565b6200037e73c89bd4e1632d3a43cb03aaad5262cbe4038bc57173ffffffffffffffffffffffffffffffffffffffff166338cc48316040518163ffffffff1660e01b815260040160206040518083038186803b1580156200033557600080fd5b505afa1580156200034a573d6000803e3d6000fd5b505050506040513d60208110156200036157600080fd5b81019080805190602001909291905050506200038060201b60201c565b565b80600260006101000a81548173ffffffffffffffffffffffffffffffffffffffff021916908373ffffffffffffffffffffffffffffffffffffffff16021790555050565b828054600181600116156101000203166002900490600052602060002090601f016020900481019282601f106200040757805160ff191683800117855562000438565b8280016001018555821562000438579182015b82811115620004375782518255916020019190600101906200041a565b5b5090506200044791906200044b565b5090565b6200047091905b808211156200046c57600081600090555060010162000452565b5090565b90565b611ce080620004836000396000f3fe608060405234801561001057600080fd5b50600436106100a95760003560e01c80636d4478b9116100715780636d4478b9146101fb57806381c6e29d1461021d57806381f75d331461023b57806382662b2514610259578063852979db14610291578063b6b80a6e14610314576100a9565b806312065fe0146100ae5780634cfd881e146100cc5780635958611e146100ea5780635aeecb671461010857806360f7aa6d14610140575b600080fd5b6100b6610342565b6040518082815260200191505060405180910390f35b6100d4610361565b6040518082815260200191505060405180910390f35b6100f2610367565b6040518082815260200191505060405180910390f35b61013e6004803603604081101561011e57600080fd5b81019080803590602001909291908035906020019092919050505061036d565b005b6101f96004803603602081101561015657600080fd5b810190808035906020019064010000000081111561017357600080fd5b82018360208201111561018557600080fd5b803590602001918460018302840111640100000000831117156101a757600080fd5b91908080601f016020809104026020016040519081016040528093929190818152602001838380828437600081840152601f19601f8201169050808301925050505050505091929192905050506104c4565b005b610203610611565b604051808215151515815260200191505060405180910390f35b610225610624565b6040518082815260200191505060405180910390f35b61024361062a565b6040518082815260200191505060405180910390f35b61028f6004803603604081101561026f57600080fd5b810190808035906020019092919080359060200190929190505050610630565b005b610299610819565b6040518080602001828103825283818151815260200191508051906020019080838360005b838110156102d95780820151818401526020810190506102be565b50505050905090810190601f1680156103065780820380516001836020036101000a031916815260200191505b509250505060405180910390f35b6103406004803603602081101561032a57600080fd5b81019080803590602001909291905050506108b7565b005b60003073ffffffffffffffffffffffffffffffffffffffff1631905090565b60095481565b600c5481565b816005600082815260200190815260200160002060009054906101000a900473ffffffffffffffffffffffffffffffffffffffff1673ffffffffffffffffffffffffffffffffffffffff163373ffffffffffffffffffffffffffffffffffffffff1614610425576040517f08c379a0000000000000000000000000000000000000000000000000000000008152600401808060200182810382526028815260200180611c836028913960400191505060405180910390fd5b6005600082815260200190815260200160002060006101000a81549073ffffffffffffffffffffffffffffffffffffffff0219169055807f7cc135e0cebb02c3480ae5d74d377283180a2601f8f644edf7987b009316c63a60405160405180910390a281837ff2e50ff355b58598267c58d6d90d42bd3902436bb885f7e3b551263be1fd252960405160405180910390a36104bf82610ac4565b505050565b600860149054906101000a900460ff1615610547576040517f08c379a00000000000000000000000000000000000000000000000000000000081526004018080602001828103825260178152602001807f536f6d656f6e6520616c7265616479206170706c69656400000000000000000081525060200191505060405180910390fd5b6001600860146101000a81548160ff02191690831515021790555033600860006101000a81548173ffffffffffffffffffffffffffffffffffffffff021916908373ffffffffffffffffffffffffffffffffffffffff16021790555080600e90805190602001906105b9929190611b33565b5061060e73fa42eb0c75b4593b4377d19b6f0edb4abc705d546040518060400160405280602081526020017f393865333930613534323739343663666131313361313464626538333962323181525083610e46565b50565b600860149054906101000a900460ff1681565b600d5481565b600b5481565b816005600082815260200190815260200160002060009054906101000a900473ffffffffffffffffffffffffffffffffffffffff1673ffffffffffffffffffffffffffffffffffffffff163373ffffffffffffffffffffffffffffffffffffffff16146106e8576040517f08c379a0000000000000000000000000000000000000000000000000000000008152600401808060200182810382526028815260200180611c836028913960400191505060405180910390fd5b6005600082815260200190815260200160002060006101000a81549073ffffffffffffffffffffffffffffffffffffffff0219169055807f7cc135e0cebb02c3480ae5d74d377283180a2601f8f644edf7987b009316c63a60405160405180910390a28160095414610774576000600860146101000a81548160ff021916908315150217905550610814565b600e60405180828054600181600116156101000203166002900480156107d15780601f106107af5761010080835404028352918201916107d1565b820191906000526020600020905b8154815290600101906020018083116107bd575b50509150506040518091039020837fd9685bc98dee0599c305a18234fff2f862d359bf93b318e4537253352be50bd260405160405180910390a3610813610f50565b5b505050565b600a8054600181600116156101000203166002900480601f0160208091040260200160405190810160405280929190818152602001828054600181600116156101000203166002900480156108af5780601f10610884576101008083540402835291602001916108af565b820191906000526020600020905b81548152906001019060200180831161089257829003601f168201915b505050505081565b806005600082815260200190815260200160002060009054906101000a900473ffffffffffffffffffffffffffffffffffffffff1673ffffffffffffffffffffffffffffffffffffffff163373ffffffffffffffffffffffffffffffffffffffff161461096f576040517f08c379a0000000000000000000000000000000000000000000000000000000008152600401808060200182810382526028815260200180611c836028913960400191505060405180910390fd5b6005600082815260200190815260200160002060006101000a81549073ffffffffffffffffffffffffffffffffffffffff0219169055807f7cc135e0cebb02c3480ae5d74d377283180a2601f8f644edf7987b009316c63a60405160405180910390a2610ac073fa42eb0c75b4593b4377d19b6f0edb4abc705d546040518060400160405280602081526020017f3938653339306135343237393436636661313133613134646265383339623231815250600e8054600181600116156101000203166002900480601f016020809104026020016040519081016040528092919081815260200182805460018160011615610100020316600290048015610ab65780601f10610a8b57610100808354040283529160200191610ab6565b820191906000526020600020905b815481529060010190602001808311610a9957829003601f168201915b505050505061102f565b5050565b6000610ace610342565b905060008111610b46576040517f08c379a000000000000000000000000000000000000000000000000000000000815260040180806020018281038252601c8152602001807f5468697320636f6e747261637420686173206e6f2062616c616e63650000000081525060200191505060405180910390fd5b81600d541015610bbe57600860009054906101000a900473ffffffffffffffffffffffffffffffffffffffff1673ffffffffffffffffffffffffffffffffffffffff166108fc829081150290604051600060405180830381858888f19350505050158015610bb8573d6000803e3d6000fd5b50610e42565b600760009054906101000a900473ffffffffffffffffffffffffffffffffffffffff1673ffffffffffffffffffffffffffffffffffffffff166108fc829081150290604051600060405180830381858888f19350505050158015610c26573d6000803e3d6000fd5b506000610c31611139565b90508073ffffffffffffffffffffffffffffffffffffffff1663a9059cbb600760009054906101000a900473ffffffffffffffffffffffffffffffffffffffff168373ffffffffffffffffffffffffffffffffffffffff166370a08231306040518263ffffffff1660e01b8152600401808273ffffffffffffffffffffffffffffffffffffffff1673ffffffffffffffffffffffffffffffffffffffff16815260200191505060206040518083038186803b158015610cef57600080fd5b505afa158015610d03573d6000803e3d6000fd5b505050506040513d6020811015610d1957600080fd5b81019080805190602001909291905050506040518363ffffffff1660e01b8152600401808373ffffffffffffffffffffffffffffffffffffffff1673ffffffffffffffffffffffffffffffffffffffff16815260200182815260200192505050602060405180830381600087803b158015610d9357600080fd5b505af1158015610da7573d6000803e3d6000fd5b505050506040513d6020811015610dbd57600080fd5b8101908080519060200190929190505050610e40576040517f08c379a00000000000000000000000000000000000000000000000000000000081526004018080602001828103825260128152602001807f556e61626c6520746f207472616e73666572000000000000000000000000000081525060200191505060405180910390fd5b505b5050565b610e4e611bb3565b610e68610e5a84611163565b306382662b2560e01b61118e565b9050610eb46040518060400160405280600881526020017f766964656f55726c00000000000000000000000000000000000000000000000081525083836111bf9092919063ffffffff16565b610f336040518060400160405280600881526020017f636f7079506174680000000000000000000000000000000000000000000000008152506040518060400160405280600e81526020017f726573756c742e6d757369634964000000000000000000000000000000000000815250836111bf9092919063ffffffff16565b610f498482670de0b6b3a76400006001026111f2565b5050505050565b6000732f90a6d021db21e1b2a077c5a37b3c7e75d15b7e905060606040518060400160405280602081526020017f61376162373064353631643334656234396539623136313266643265303434628152509050610fab611bb3565b610fc5610fb783611163565b3063b6b80a6e60e01b61118e565b90506110136040518060400160405280600581526020017f756e74696c000000000000000000000000000000000000000000000000000000815250600c54836114aa9092919063ffffffff16565b6110298382670de0b6b3a76400006001026111f2565b50505050565b611037611bb3565b61105161104384611163565b30635aeecb6760e01b61118e565b905061109d6040518060400160405280600881526020017f766964656f55726c00000000000000000000000000000000000000000000000081525083836111bf9092919063ffffffff16565b61111c6040518060400160405280600881526020017f636f7079506174680000000000000000000000000000000000000000000000008152506040518060400160405280600c81526020017f726573756c742e6c696b65730000000000000000000000000000000000000000815250836111bf9092919063ffffffff16565b6111328482670de0b6b3a76400006001026111f2565b5050505050565b6000600260009054906101000a900473ffffffffffffffffffffffffffffffffffffffff16905090565b60006060829050600081511415611180576000801b915050611189565b60208301519150505b919050565b611196611bb3565b61119e611bb3565b6111b5858585846114dd909392919063ffffffff16565b9150509392505050565b6111d682846080015161158d90919063ffffffff16565b6111ed81846080015161158d90919063ffffffff16565b505050565b600030600454604051602001808373ffffffffffffffffffffffffffffffffffffffff1673ffffffffffffffffffffffffffffffffffffffff1660601b815260140182815260200192505050604051602081830303815290604052805190602001209050600454836060018181525050836005600083815260200190815260200160002060006101000a81548173ffffffffffffffffffffffffffffffffffffffff021916908373ffffffffffffffffffffffffffffffffffffffff160217905550807fb5e6e01e79f91267dc17b4e6314d5d4d03593d2ceee0fbb452b750bd70ea5af960405160405180910390a2600260009054906101000a900473ffffffffffffffffffffffffffffffffffffffff1673ffffffffffffffffffffffffffffffffffffffff16634000aea0858461132a876115b2565b6040518463ffffffff1660e01b8152600401808473ffffffffffffffffffffffffffffffffffffffff1673ffffffffffffffffffffffffffffffffffffffff16815260200183815260200180602001828103825283818151815260200191508051906020019080838360005b838110156113b1578082015181840152602081019050611396565b50505050905090810190601f1680156113de5780820380516001836020036101000a031916815260200191505b50945050505050602060405180830381600087803b1580156113ff57600080fd5b505af1158015611413573d6000803e3d6000fd5b505050506040513d602081101561142957600080fd5b810190808051906020019092919050505061148f576040517f08c379a0000000000000000000000000000000000000000000000000000000008152600401808060200182810382526023815260200180611c606023913960400191505060405180910390fd5b60016004600082825401925050819055508090509392505050565b6114c182846080015161158d90919063ffffffff16565b6114d881846080015161177e90919063ffffffff16565b505050565b6114e5611bb3565b6114f5856080015161010061178e565b508385600001818152505082856020019073ffffffffffffffffffffffffffffffffffffffff16908173ffffffffffffffffffffffffffffffffffffffff16815250508185604001907bffffffffffffffffffffffffffffffffffffffffffffffffffffffff191690817bffffffffffffffffffffffffffffffffffffffffffffffffffffffff191681525050849050949350505050565b61159a82600383516117e2565b6115ad818361192790919063ffffffff16565b505050565b6060634042994660e01b60008084600001518560200151866040015187606001516001896080015160000151604051602401808973ffffffffffffffffffffffffffffffffffffffff1673ffffffffffffffffffffffffffffffffffffffff1681526020018881526020018781526020018673ffffffffffffffffffffffffffffffffffffffff1673ffffffffffffffffffffffffffffffffffffffff168152602001857bffffffffffffffffffffffffffffffffffffffffffffffffffffffff19167bffffffffffffffffffffffffffffffffffffffffffffffffffffffff1916815260200184815260200183815260200180602001828103825283818151815260200191508051906020019080838360005b838110156116e15780820151818401526020810190506116c6565b50505050905090810190601f16801561170e5780820380516001836020036101000a031916815260200191505b509950505050505050505050604051602081830303815290604052907bffffffffffffffffffffffffffffffffffffffffffffffffffffffff19166020820180517bffffffffffffffffffffffffffffffffffffffffffffffffffffffff83818316178352505050509050919050565b61178a826000836117e2565b5050565b611796611c20565b6000602083816117a257fe5b06146117bb57602082816117b257fe5b06602003820191505b81836020018181525050604051808452600081528281016020016040525082905092915050565b6017811161180f576118098160058460ff16901b60ff16178461194990919063ffffffff16565b50611922565b60ff811161185157611834601860058460ff16901b178461194990919063ffffffff16565b5061184b816001856119699092919063ffffffff16565b50611921565b61ffff811161189457611877601960058460ff16901b178461194990919063ffffffff16565b5061188e816002856119699092919063ffffffff16565b50611920565b63ffffffff81116118d9576118bc601a60058460ff16901b178461194990919063ffffffff16565b506118d3816004856119699092919063ffffffff16565b5061191f565b67ffffffffffffffff811161191e57611905601b60058460ff16901b178461194990919063ffffffff16565b5061191c816008856119699092919063ffffffff16565b505b5b5b5b5b505050565b61192f611c20565b6119418384600001515184855161198b565b905092915050565b611951611c20565b6119618384600001515184611a44565b905092915050565b611971611c20565b611982848560000151518585611a92565b90509392505050565b611993611c20565b82518211156119a157600080fd5b846020015182850111156119cc576119cb8560026119c58860200151888701611af3565b02611b0f565b5b6000808651805187602083010193508088870111156119eb5787860182525b60208701925050505b60208410611a1757805182526020820191506020810190506020840393506119f4565b60006001856020036101000a03905080198251168184511681811785525050879350505050949350505050565b611a4c611c20565b83602001518310611a6957611a68846002866020015102611b0f565b5b8351805160208583010184815381861415611a85576001820183525b5050508390509392505050565b611a9a611c20565b84602001518483011115611ab857611ab785600286850102611b0f565b5b60006001836101000a0390508551838682010185831982511617815281518588011115611ae55784870182525b505085915050949350505050565b600081831115611b0557829050611b09565b8190505b92915050565b606082600001519050611b22838361178e565b50611b2d8382611927565b50505050565b828054600181600116156101000203166002900490600052602060002090601f016020900481019282601f10611b7457805160ff1916838001178555611ba2565b82800160010185558215611ba2579182015b82811115611ba1578251825591602001919060010190611b86565b5b509050611baf9190611c3a565b5090565b6040518060a0016040528060008019168152602001600073ffffffffffffffffffffffffffffffffffffffff16815260200160007bffffffffffffffffffffffffffffffffffffffffffffffffffffffff1916815260200160008152602001611c1a611c20565b81525090565b604051806040016040528060608152602001600081525090565b611c5c91905b80821115611c58576000816000905550600101611c40565b5090565b9056fe756e61626c6520746f207472616e73666572416e6443616c6c20746f206f7261636c65536f75726365206d75737420626520746865206f7261636c65206f66207468652072657175657374a2646970667358221220da131b7ed3edf80c09e0ec7c5682f23ea3a035bb813facdb95a9bbc19751db7864736f6c63430006060033",
  "immutableReferences": {},
  "source": "pragma solidity 0.6.6;\r\n\r\n// import \"https://github.com/smartcontractkit/chainlink/evm-contracts/src/v0.6/ChainlinkClient.sol\"; // Remix dev\r\nimport \"@chainlink/contracts/src/v0.6/ChainlinkClient.sol\"; //Local Dev (npm)\r\nimport \"./OfferList.sol\";\r\n\r\ncontract Offer is ChainlinkClient {\r\n    uint256 constant private ORACLE_PAYMENT = 1 * LINK; // Price per job\r\n    address constant private ORACLE_ADDRESS = 0xfa42eB0C75B4593b4377D19b6f0edB4Abc705D54;\r\n    string constant private JOB_ID = \"98e390a5427946cfa113a14dbe839b21\"; // Likes < uint256\r\n    address offerListAddr = 0x0b179553E46531397A4092501033dC8883B2235c;\r\n    address payable owner;\r\n    address payable applier;\r\n\r\n    bool public applied = false;\r\n    uint256 public song;\r\n    string public songUrl;\r\n    uint256 public limitDays;\r\n    uint256 public finishTime;\r\n    uint256 public minLikes;\r\n\r\n    string videoUrl;\r\n\r\n    event ApplicationFulfilled(\r\n        bytes32 indexed requestId,\r\n        string indexed videoUrl\r\n    );\r\n\r\n    event RequestLikesFulfilled(\r\n        bytes32 indexed requestId,\r\n        uint256 indexed likes\r\n    );\r\n\r\n    constructor (\r\n        string memory _songUrl,\r\n        uint256 _songId,\r\n        uint256 _limitDays,\r\n        uint256 _minLikes\r\n        ) public payable  {\r\n        setPublicChainlinkToken();\r\n        owner = msg.sender;\r\n        songUrl = _songUrl;\r\n        song = _songId;\r\n        limitDays = _limitDays;\r\n        minLikes = _minLikes;\r\n\r\n        OfferList offerList = OfferList(offerListAddr);\r\n        offerList.addOffer(address(this));\r\n\r\n        finishTime = now + _limitDays * 1 minutes; // Set minutes instead of days in testing\r\n    }\r\n\r\n\r\n    function getBalance() public view returns (uint){\r\n        return address(this).balance;\r\n    }\r\n\r\n    /**\r\n     * Allows users to introduce their VideoUrl and be able to participate\r\n     */\r\n    function applyToOffer(string memory _videoUrl) public {\r\n        require(!applied, 'Someone already applied');\r\n        applied = true;\r\n        applier = msg.sender;\r\n        videoUrl = _videoUrl;\r\n        checkMusicId(ORACLE_ADDRESS, JOB_ID, _videoUrl);\r\n    }\r\n\r\n    function checkMusicId(address _oracle, string memory _jobId, string memory _videoUrl) private  {\r\n        Chainlink.Request memory req = buildChainlinkRequest(stringToBytes32(_jobId), address(this), this.fulfillMusicId.selector);\r\n        req.add(\"videoUrl\", _videoUrl);\r\n        req.add(\"copyPath\", \"result.musicId\");\r\n        sendChainlinkRequestTo(_oracle, req, ORACLE_PAYMENT);\r\n    }\r\n\r\n    function fulfillMusicId(bytes32 _requestId, uint256 _musicId) public recordChainlinkFulfillment(_requestId) {\r\n        if (song != _musicId) {\r\n            applied = false;\r\n        } else {\r\n            emit ApplicationFulfilled(_requestId, videoUrl);\r\n            startSleep();\r\n        }\r\n    }\r\n\r\n    function startSleep() private {\r\n        address sleepOracle = 0x2f90A6D021db21e1B2A077c5a37B3C7E75D15b7e; // Kovan oracle with sleep\r\n        string memory sleepJobId = \"a7ab70d561d34eb49e9b1612fd2e044b\";\r\n        Chainlink.Request memory req = buildChainlinkRequest(stringToBytes32(sleepJobId), address(this), this.sleepCallback.selector);\r\n        req.addUint(\"until\", finishTime);\r\n        sendChainlinkRequestTo(sleepOracle, req, ORACLE_PAYMENT);\r\n    }\r\n\r\n    function sleepCallback(bytes32 _requestId) public recordChainlinkFulfillment(_requestId)\r\n    {\r\n        requestLikes(ORACLE_ADDRESS, JOB_ID, videoUrl);\r\n    }\r\n\r\n    /**\r\n     * Asks for the number of likes and calls the callback function once finished with the result\r\n     *\r\n     * Params:\r\n     *\r\n     *      Oracle: Address of the Orcale contract that the node is listed - 0xfa42eB0C75B4593b4377D19b6f0edB4Abc705D54\r\n     *      JobId: Id of the Job we are willing to return - 98e390a5427946cfa113a14dbe839b21\r\n     *      VideoUrl: Link of the tiktok video we want to extract info from\r\n     */\r\n    function requestLikes(address _oracle, string memory _jobId, string memory _videoUrl) private {\r\n        Chainlink.Request memory req = buildChainlinkRequest(stringToBytes32(_jobId), address(this), this.fulfillLikesCount.selector);\r\n        req.add(\"videoUrl\", _videoUrl);\r\n        req.add(\"copyPath\", \"result.likes\");\r\n        sendChainlinkRequestTo(_oracle, req, ORACLE_PAYMENT);\r\n    }\r\n\r\n    /**\r\n     * Callback function\r\n     */\r\n    function fulfillLikesCount(bytes32 _requestId, uint256 _likes) public recordChainlinkFulfillment(_requestId) {\r\n        emit RequestLikesFulfilled(_requestId, _likes);\r\n        transferFunds(_likes);\r\n    }\r\n\r\n    function transferFunds(uint256 _likes) private {\r\n        uint value = getBalance();\r\n        require(value > 0, 'This contract has no balance');\r\n        if (minLikes < _likes) {\r\n            applier.transfer(value);\r\n        } else {\r\n            owner.transfer(value);\r\n            // Also send the link tokens back if it had some left\r\n            LinkTokenInterface link = LinkTokenInterface(chainlinkTokenAddress());\r\n            require(link.transfer(owner, link.balanceOf(address(this))), \"Unable to transfer\");\r\n        }\r\n    }\r\n\r\n    // ----------------------\r\n    function stringToBytes32(string memory source) private pure returns (bytes32 result) {\r\n        bytes memory tempEmptyStringTest = bytes(source);\r\n        if (tempEmptyStringTest.length == 0) {\r\n          return 0x0;\r\n        }\r\n\r\n        assembly { // solhint-disable-line no-inline-assembly\r\n          result := mload(add(source, 32))\r\n        }\r\n    }\r\n}\r\n",
  "sourcePath": "D:/Storage/Code/SponsorProject/angular-dapp/contracts/Offer.sol",
  "compiler": {
    "name": "solc",
    "version": "0.6.6+commit.6c089d02.Emscripten.clang"
  },
  "schemaVersion": "3.3.1",
  "updatedAt": "2020-11-18T19:00:21.770Z",
  "devdoc": {
    "methods": {}
  },
  "userdoc": {
    "methods": {
      "applyToOffer(string)": {
        "notice": "Allows users to introduce their VideoUrl and be able to participate"
      },
      "fulfillLikesCount(bytes32,uint256)": {
        "notice": "Callback function"
      }
    }
  }
}