{
  "contractName": "Offer",
  "abi": [
    {
      "inputs": [
        {
          "internalType": "string",
          "name": "_songUrl",
          "type": "string"
        },
        {
          "internalType": "uint256",
          "name": "_songId",
          "type": "uint256"
        },
        {
          "internalType": "uint256",
          "name": "_limitDays",
          "type": "uint256"
        },
        {
          "internalType": "uint256",
          "name": "_minLikes",
          "type": "uint256"
        }
      ],
      "stateMutability": "payable",
      "type": "constructor"
    },
    {
      "anonymous": false,
      "inputs": [
        {
          "indexed": true,
          "internalType": "bytes32",
          "name": "requestId",
          "type": "bytes32"
        },
        {
          "indexed": true,
          "internalType": "string",
          "name": "videoUrl",
          "type": "string"
        },
        {
          "indexed": false,
          "internalType": "bool",
          "name": "isFulfilled",
          "type": "bool"
        }
      ],
      "name": "ApplicationFulfillment",
      "type": "event"
    },
    {
      "anonymous": false,
      "inputs": [
        {
          "indexed": true,
          "internalType": "bytes32",
          "name": "id",
          "type": "bytes32"
        }
      ],
      "name": "ChainlinkCancelled",
      "type": "event"
    },
    {
      "anonymous": false,
      "inputs": [
        {
          "indexed": true,
          "internalType": "bytes32",
          "name": "id",
          "type": "bytes32"
        }
      ],
      "name": "ChainlinkFulfilled",
      "type": "event"
    },
    {
      "anonymous": false,
      "inputs": [
        {
          "indexed": true,
          "internalType": "bytes32",
          "name": "id",
          "type": "bytes32"
        }
      ],
      "name": "ChainlinkRequested",
      "type": "event"
    },
    {
      "anonymous": false,
      "inputs": [
        {
          "indexed": true,
          "internalType": "bytes32",
          "name": "requestId",
          "type": "bytes32"
        },
        {
          "indexed": true,
          "internalType": "uint256",
          "name": "likes",
          "type": "uint256"
        }
      ],
      "name": "RequestLikesFulfilled",
      "type": "event"
    },
    {
      "inputs": [],
      "name": "applied",
      "outputs": [
        {
          "internalType": "bool",
          "name": "",
          "type": "bool"
        }
      ],
      "stateMutability": "view",
      "type": "function"
    },
    {
      "inputs": [],
      "name": "finishTime",
      "outputs": [
        {
          "internalType": "uint256",
          "name": "",
          "type": "uint256"
        }
      ],
      "stateMutability": "view",
      "type": "function"
    },
    {
      "inputs": [],
      "name": "minLikes",
      "outputs": [
        {
          "internalType": "uint256",
          "name": "",
          "type": "uint256"
        }
      ],
      "stateMutability": "view",
      "type": "function"
    },
    {
      "inputs": [],
      "name": "song",
      "outputs": [
        {
          "internalType": "uint256",
          "name": "",
          "type": "uint256"
        }
      ],
      "stateMutability": "view",
      "type": "function"
    },
    {
      "inputs": [],
      "name": "songUrl",
      "outputs": [
        {
          "internalType": "string",
          "name": "",
          "type": "string"
        }
      ],
      "stateMutability": "view",
      "type": "function"
    },
    {
      "inputs": [],
      "name": "videoUrl",
      "outputs": [
        {
          "internalType": "string",
          "name": "",
          "type": "string"
        }
      ],
      "stateMutability": "view",
      "type": "function"
    },
    {
      "inputs": [
        {
          "internalType": "string",
          "name": "_videoUrl",
          "type": "string"
        }
      ],
      "name": "applyToOffer",
      "outputs": [],
      "stateMutability": "nonpayable",
      "type": "function"
    },
    {
      "inputs": [
        {
          "internalType": "bytes32",
          "name": "_requestId",
          "type": "bytes32"
        },
        {
          "internalType": "uint256",
          "name": "_musicId",
          "type": "uint256"
        }
      ],
      "name": "fulfillMusicId",
      "outputs": [],
      "stateMutability": "nonpayable",
      "type": "function"
    },
    {
      "inputs": [
        {
          "internalType": "bytes32",
          "name": "_requestId",
          "type": "bytes32"
        },
        {
          "internalType": "uint256",
          "name": "_likes",
          "type": "uint256"
        }
      ],
      "name": "fulfillLikesCount",
      "outputs": [],
      "stateMutability": "nonpayable",
      "type": "function"
    },
    {
      "inputs": [],
      "name": "withdrawEth",
      "outputs": [],
      "stateMutability": "nonpayable",
      "type": "function"
    }
  ],
  "bytecode": "0x6080604052600160045573237463088a6ab75126e8fa9c07520121015b10bc600660006101000a81548173ffffffffffffffffffffffffffffffffffffffff021916908373ffffffffffffffffffffffffffffffffffffffff1602179055506000600860146101000a81548160ff021916908315150217905550604051620021c2380380620021c2833981810160405260808110156200009e57600080fd5b8101908080516040519392919084640100000000821115620000bf57600080fd5b83820191506020820185811115620000d657600080fd5b8251866001820283011164010000000082111715620000f457600080fd5b8083526020830192505050908051906020019080838360005b838110156200012a5780820151818401526020810190506200010d565b50505050905090810190601f168015620001585780820380516001836020036101000a031916815260200191505b5060405260200180519060200190929190805190602001909291908051906020019092919050505062000190620002cf60201b60201c565b33600760006101000a81548173ffffffffffffffffffffffffffffffffffffffff021916908373ffffffffffffffffffffffffffffffffffffffff16021790555083600a9080519060200190620001e9929190620003bd565b508260098190555080600c819055506000600660009054906101000a900473ffffffffffffffffffffffffffffffffffffffff1690508073ffffffffffffffffffffffffffffffffffffffff1663a553269b306040518263ffffffff1660e01b8152600401808273ffffffffffffffffffffffffffffffffffffffff1673ffffffffffffffffffffffffffffffffffffffff168152602001915050600060405180830381600087803b1580156200029f57600080fd5b505af1158015620002b4573d6000803e3d6000fd5b50505050603c83024201600b8190555050505050506200046c565b6200037773c89bd4e1632d3a43cb03aaad5262cbe4038bc57173ffffffffffffffffffffffffffffffffffffffff166338cc48316040518163ffffffff1660e01b815260040160206040518083038186803b1580156200032e57600080fd5b505afa15801562000343573d6000803e3d6000fd5b505050506040513d60208110156200035a57600080fd5b81019080805190602001909291905050506200037960201b60201c565b565b80600260006101000a81548173ffffffffffffffffffffffffffffffffffffffff021916908373ffffffffffffffffffffffffffffffffffffffff16021790555050565b828054600181600116156101000203166002900490600052602060002090601f016020900481019282601f106200040057805160ff191683800117855562000431565b8280016001018555821562000431579182015b828111156200043057825182559160200191906001019062000413565b5b50905062000440919062000444565b5090565b6200046991905b80821115620004655760008160009055506001016200044b565b5090565b90565b611d46806200047c6000396000f3fe608060405234801561001057600080fd5b506004361061009e5760003560e01c806373c9fbe21161006657806373c9fbe2146101f457806381c6e29d1461027757806382662b2514610295578063852979db146102cd578063a0ef91df146103505761009e565b80634cfd881e146100a35780635958611e146100c15780635aeecb67146100df57806360f7aa6d146101175780636d4478b9146101d2575b600080fd5b6100ab61035a565b6040518082815260200191505060405180910390f35b6100c9610360565b6040518082815260200191505060405180910390f35b610115600480360360408110156100f557600080fd5b810190808035906020019092919080359060200190929190505050610366565b005b6101d06004803603602081101561012d57600080fd5b810190808035906020019064010000000081111561014a57600080fd5b82018360208201111561015c57600080fd5b8035906020019184600183028401116401000000008311171561017e57600080fd5b91908080601f016020809104026020016040519081016040528093929190818152602001838380828437600081840152601f19601f8201169050808301925050505050505091929192905050506104bd565b005b6101da61060a565b604051808215151515815260200191505060405180910390f35b6101fc61061d565b6040518080602001828103825283818151815260200191508051906020019080838360005b8381101561023c578082015181840152602081019050610221565b50505050905090810190601f1680156102695780820380516001836020036101000a031916815260200191505b509250505060405180910390f35b61027f6106bb565b6040518082815260200191505060405180910390f35b6102cb600480360360408110156102ab57600080fd5b8101908080359060200190929190803590602001909291905050506106c1565b005b6102d5610a47565b6040518080602001828103825283818151815260200191508051906020019080838360005b838110156103155780820151818401526020810190506102fa565b50505050905090810190601f1680156103425780820380516001836020036101000a031916815260200191505b509250505060405180910390f35b610358610ae5565b005b60095481565b600b5481565b816005600082815260200190815260200160002060009054906101000a900473ffffffffffffffffffffffffffffffffffffffff1673ffffffffffffffffffffffffffffffffffffffff163373ffffffffffffffffffffffffffffffffffffffff161461041e576040517f08c379a0000000000000000000000000000000000000000000000000000000008152600401808060200182810382526028815260200180611ce96028913960400191505060405180910390fd5b6005600082815260200190815260200160002060006101000a81549073ffffffffffffffffffffffffffffffffffffffff0219169055807f7cc135e0cebb02c3480ae5d74d377283180a2601f8f644edf7987b009316c63a60405160405180910390a281837ff2e50ff355b58598267c58d6d90d42bd3902436bb885f7e3b551263be1fd252960405160405180910390a36104b882610bad565b505050565b600860149054906101000a900460ff1615610540576040517f08c379a00000000000000000000000000000000000000000000000000000000081526004018080602001828103825260178152602001807f536f6d656f6e6520616c7265616479206170706c69656400000000000000000081525060200191505060405180910390fd5b6001600860146101000a81548160ff02191690831515021790555033600860006101000a81548173ffffffffffffffffffffffffffffffffffffffff021916908373ffffffffffffffffffffffffffffffffffffffff16021790555080600d90805190602001906105b2929190611b99565b5061060773fa42eb0c75b4593b4377d19b6f0edb4abc705d546040518060400160405280602081526020017f393865333930613534323739343663666131313361313464626538333962323181525083610f3f565b50565b600860149054906101000a900460ff1681565b600d8054600181600116156101000203166002900480601f0160208091040260200160405190810160405280929190818152602001828054600181600116156101000203166002900480156106b35780601f10610688576101008083540402835291602001916106b3565b820191906000526020600020905b81548152906001019060200180831161069657829003601f168201915b505050505081565b600c5481565b816005600082815260200190815260200160002060009054906101000a900473ffffffffffffffffffffffffffffffffffffffff1673ffffffffffffffffffffffffffffffffffffffff163373ffffffffffffffffffffffffffffffffffffffff1614610779576040517f08c379a0000000000000000000000000000000000000000000000000000000008152600401808060200182810382526028815260200180611ce96028913960400191505060405180910390fd5b6005600082815260200190815260200160002060006101000a81549073ffffffffffffffffffffffffffffffffffffffff0219169055807f7cc135e0cebb02c3480ae5d74d377283180a2601f8f644edf7987b009316c63a60405160405180910390a281600954146108ac576000600860146101000a81548160ff021916908315150217905550600d604051808280546001816001161561010002031660029004801561085d5780601f1061083b57610100808354040283529182019161085d565b820191906000526020600020905b815481529060010190602001808311610849575b50509150506040518091039020837f1134f5287c18317276966d00ecd22983fdd043795d82216e767e834fd30aa9126000604051808215151515815260200191505060405180910390a3610a42565b600d60405180828054600181600116156101000203166002900480156109095780601f106108e7576101008083540402835291820191610909565b820191906000526020600020905b8154815290600101906020018083116108f5575b50509150506040518091039020837f1134f5287c18317276966d00ecd22983fdd043795d82216e767e834fd30aa9126001604051808215151515815260200191505060405180910390a3610a4173fa42eb0c75b4593b4377d19b6f0edb4abc705d546040518060400160405280602081526020017f3839323563356266333261393465333938343033343165666133343364326632815250600d8054600181600116156101000203166002900480601f016020809104026020016040519081016040528092919081815260200182805460018160011615610100020316600290048015610a375780601f10610a0c57610100808354040283529160200191610a37565b820191906000526020600020905b815481529060010190602001808311610a1a57829003601f168201915b5050505050611049565b5b505050565b600a8054600181600116156101000203166002900480601f016020809104026020016040519081016040528092919081815260200182805460018160011615610100020316600290048015610add5780601f10610ab257610100808354040283529160200191610add565b820191906000526020600020905b815481529060010190602001808311610ac057829003601f168201915b505050505081565b600760009054906101000a900473ffffffffffffffffffffffffffffffffffffffff1673ffffffffffffffffffffffffffffffffffffffff163373ffffffffffffffffffffffffffffffffffffffff1614610b3f57600080fd5b42600b5410610b4d57600080fd5b3373ffffffffffffffffffffffffffffffffffffffff166108fc3073ffffffffffffffffffffffffffffffffffffffff16319081150290604051600060405180830381858888f19350505050158015610baa573d6000803e3d6000fd5b50565b60003073ffffffffffffffffffffffffffffffffffffffff1631905060008111610c3f576040517f08c379a000000000000000000000000000000000000000000000000000000000815260040180806020018281038252601c8152602001807f5468697320636f6e747261637420686173206e6f2062616c616e63650000000081525060200191505060405180910390fd5b81600c541015610cb757600860009054906101000a900473ffffffffffffffffffffffffffffffffffffffff1673ffffffffffffffffffffffffffffffffffffffff166108fc829081150290604051600060405180830381858888f19350505050158015610cb1573d6000803e3d6000fd5b50610d21565b600760009054906101000a900473ffffffffffffffffffffffffffffffffffffffff1673ffffffffffffffffffffffffffffffffffffffff166108fc829081150290604051600060405180830381858888f19350505050158015610d1f573d6000803e3d6000fd5b505b6000610d2b61119f565b90508073ffffffffffffffffffffffffffffffffffffffff1663a9059cbb600760009054906101000a900473ffffffffffffffffffffffffffffffffffffffff168373ffffffffffffffffffffffffffffffffffffffff166370a08231306040518263ffffffff1660e01b8152600401808273ffffffffffffffffffffffffffffffffffffffff1673ffffffffffffffffffffffffffffffffffffffff16815260200191505060206040518083038186803b158015610de957600080fd5b505afa158015610dfd573d6000803e3d6000fd5b505050506040513d6020811015610e1357600080fd5b81019080805190602001909291905050506040518363ffffffff1660e01b8152600401808373ffffffffffffffffffffffffffffffffffffffff1673ffffffffffffffffffffffffffffffffffffffff16815260200182815260200192505050602060405180830381600087803b158015610e8d57600080fd5b505af1158015610ea1573d6000803e3d6000fd5b505050506040513d6020811015610eb757600080fd5b8101908080519060200190929190505050610f3a576040517f08c379a00000000000000000000000000000000000000000000000000000000081526004018080602001828103825260128152602001807f556e61626c6520746f207472616e73666572000000000000000000000000000081525060200191505060405180910390fd5b505050565b610f47611c19565b610f61610f53846111c9565b306382662b2560e01b6111f4565b9050610fad6040518060400160405280600881526020017f766964656f55726c00000000000000000000000000000000000000000000000081525083836112259092919063ffffffff16565b61102c6040518060400160405280600881526020017f636f7079506174680000000000000000000000000000000000000000000000008152506040518060400160405280600e81526020017f726573756c742e6d757369634964000000000000000000000000000000000000815250836112259092919063ffffffff16565b6110428482670de0b6b3a7640000600102611258565b5050505050565b611051611c19565b61106b61105d846111c9565b30635aeecb6760e01b6111f4565b90506110b96040518060400160405280600581526020017f756e74696c000000000000000000000000000000000000000000000000000000815250600b54836115109092919063ffffffff16565b6111036040518060400160405280600881526020017f766964656f55726c00000000000000000000000000000000000000000000000081525083836112259092919063ffffffff16565b6111826040518060400160405280600881526020017f636f7079506174680000000000000000000000000000000000000000000000008152506040518060400160405280600c81526020017f726573756c742e6c696b65730000000000000000000000000000000000000000815250836112259092919063ffffffff16565b6111988482670de0b6b3a7640000600102611258565b5050505050565b6000600260009054906101000a900473ffffffffffffffffffffffffffffffffffffffff16905090565b600060608290506000815114156111e6576000801b9150506111ef565b60208301519150505b919050565b6111fc611c19565b611204611c19565b61121b85858584611543909392919063ffffffff16565b9150509392505050565b61123c8284608001516115f390919063ffffffff16565b6112538184608001516115f390919063ffffffff16565b505050565b600030600454604051602001808373ffffffffffffffffffffffffffffffffffffffff1673ffffffffffffffffffffffffffffffffffffffff1660601b815260140182815260200192505050604051602081830303815290604052805190602001209050600454836060018181525050836005600083815260200190815260200160002060006101000a81548173ffffffffffffffffffffffffffffffffffffffff021916908373ffffffffffffffffffffffffffffffffffffffff160217905550807fb5e6e01e79f91267dc17b4e6314d5d4d03593d2ceee0fbb452b750bd70ea5af960405160405180910390a2600260009054906101000a900473ffffffffffffffffffffffffffffffffffffffff1673ffffffffffffffffffffffffffffffffffffffff16634000aea0858461139087611618565b6040518463ffffffff1660e01b8152600401808473ffffffffffffffffffffffffffffffffffffffff1673ffffffffffffffffffffffffffffffffffffffff16815260200183815260200180602001828103825283818151815260200191508051906020019080838360005b838110156114175780820151818401526020810190506113fc565b50505050905090810190601f1680156114445780820380516001836020036101000a031916815260200191505b50945050505050602060405180830381600087803b15801561146557600080fd5b505af1158015611479573d6000803e3d6000fd5b505050506040513d602081101561148f57600080fd5b81019080805190602001909291905050506114f5576040517f08c379a0000000000000000000000000000000000000000000000000000000008152600401808060200182810382526023815260200180611cc66023913960400191505060405180910390fd5b60016004600082825401925050819055508090509392505050565b6115278284608001516115f390919063ffffffff16565b61153e8184608001516117e490919063ffffffff16565b505050565b61154b611c19565b61155b85608001516101006117f4565b508385600001818152505082856020019073ffffffffffffffffffffffffffffffffffffffff16908173ffffffffffffffffffffffffffffffffffffffff16815250508185604001907bffffffffffffffffffffffffffffffffffffffffffffffffffffffff191690817bffffffffffffffffffffffffffffffffffffffffffffffffffffffff191681525050849050949350505050565b6116008260038351611848565b611613818361198d90919063ffffffff16565b505050565b6060634042994660e01b60008084600001518560200151866040015187606001516001896080015160000151604051602401808973ffffffffffffffffffffffffffffffffffffffff1673ffffffffffffffffffffffffffffffffffffffff1681526020018881526020018781526020018673ffffffffffffffffffffffffffffffffffffffff1673ffffffffffffffffffffffffffffffffffffffff168152602001857bffffffffffffffffffffffffffffffffffffffffffffffffffffffff19167bffffffffffffffffffffffffffffffffffffffffffffffffffffffff1916815260200184815260200183815260200180602001828103825283818151815260200191508051906020019080838360005b8381101561174757808201518184015260208101905061172c565b50505050905090810190601f1680156117745780820380516001836020036101000a031916815260200191505b509950505050505050505050604051602081830303815290604052907bffffffffffffffffffffffffffffffffffffffffffffffffffffffff19166020820180517bffffffffffffffffffffffffffffffffffffffffffffffffffffffff83818316178352505050509050919050565b6117f082600083611848565b5050565b6117fc611c86565b60006020838161180857fe5b0614611821576020828161181857fe5b06602003820191505b81836020018181525050604051808452600081528281016020016040525082905092915050565b601781116118755761186f8160058460ff16901b60ff1617846119af90919063ffffffff16565b50611988565b60ff81116118b75761189a601860058460ff16901b17846119af90919063ffffffff16565b506118b1816001856119cf9092919063ffffffff16565b50611987565b61ffff81116118fa576118dd601960058460ff16901b17846119af90919063ffffffff16565b506118f4816002856119cf9092919063ffffffff16565b50611986565b63ffffffff811161193f57611922601a60058460ff16901b17846119af90919063ffffffff16565b50611939816004856119cf9092919063ffffffff16565b50611985565b67ffffffffffffffff81116119845761196b601b60058460ff16901b17846119af90919063ffffffff16565b50611982816008856119cf9092919063ffffffff16565b505b5b5b5b5b505050565b611995611c86565b6119a7838460000151518485516119f1565b905092915050565b6119b7611c86565b6119c78384600001515184611aaa565b905092915050565b6119d7611c86565b6119e8848560000151518585611af8565b90509392505050565b6119f9611c86565b8251821115611a0757600080fd5b84602001518285011115611a3257611a31856002611a2b8860200151888701611b59565b02611b75565b5b600080865180518760208301019350808887011115611a515787860182525b60208701925050505b60208410611a7d5780518252602082019150602081019050602084039350611a5a565b60006001856020036101000a03905080198251168184511681811785525050879350505050949350505050565b611ab2611c86565b83602001518310611acf57611ace846002866020015102611b75565b5b8351805160208583010184815381861415611aeb576001820183525b5050508390509392505050565b611b00611c86565b84602001518483011115611b1e57611b1d85600286850102611b75565b5b60006001836101000a0390508551838682010185831982511617815281518588011115611b4b5784870182525b505085915050949350505050565b600081831115611b6b57829050611b6f565b8190505b92915050565b606082600001519050611b8883836117f4565b50611b93838261198d565b50505050565b828054600181600116156101000203166002900490600052602060002090601f016020900481019282601f10611bda57805160ff1916838001178555611c08565b82800160010185558215611c08579182015b82811115611c07578251825591602001919060010190611bec565b5b509050611c159190611ca0565b5090565b6040518060a0016040528060008019168152602001600073ffffffffffffffffffffffffffffffffffffffff16815260200160007bffffffffffffffffffffffffffffffffffffffffffffffffffffffff1916815260200160008152602001611c80611c86565b81525090565b604051806040016040528060608152602001600081525090565b611cc291905b80821115611cbe576000816000905550600101611ca6565b5090565b9056fe756e61626c6520746f207472616e73666572416e6443616c6c20746f206f7261636c65536f75726365206d75737420626520746865206f7261636c65206f66207468652072657175657374a2646970667358221220e11a9ae5a0283438cb8d4057af63ee7b7fc25261f6306a0cd152be1b674351e164736f6c63430006060033",
  "immutableReferences": {},
  "source": "pragma solidity 0.6.6;\r\n\r\n// import \"https://github.com/smartcontractkit/chainlink/evm-contracts/src/v0.6/ChainlinkClient.sol\"; // Remix dev\r\nimport \"@chainlink/contracts/src/v0.6/ChainlinkClient.sol\"; //Local Dev (npm)\r\nimport \"./OfferList.sol\";\r\n\r\ncontract Offer is ChainlinkClient {\r\n    uint256 private constant ORACLE_PAYMENT = 1 * LINK; // Price per job\r\n    address\r\n        private constant ORACLE_ADDRESS = 0xfa42eB0C75B4593b4377D19b6f0edB4Abc705D54;\r\n    string private constant JOB_ID = \"98e390a5427946cfa113a14dbe839b21\"; // tiktok Job\r\n    string\r\n        private constant JOB_ID_WITHSLEEP = \"8925c5bf32a94e39840341efa343d2f2\"; // tiktok Job with sleep\r\n    address offerListAddr = 0x237463088a6aB75126e8fa9C07520121015B10Bc;\r\n    address payable owner;\r\n    address payable applier;\r\n\r\n    bool public applied = false;\r\n    uint256 public song;\r\n    string public songUrl;\r\n    uint256 public finishTime;\r\n    uint256 public minLikes;\r\n    string public videoUrl;\r\n\r\n    event ApplicationFulfillment(\r\n        bytes32 indexed requestId,\r\n        string indexed videoUrl,\r\n        bool isFulfilled\r\n    );\r\n\r\n    event RequestLikesFulfilled(\r\n        bytes32 indexed requestId,\r\n        uint256 indexed likes\r\n    );\r\n\r\n    constructor(\r\n        string memory _songUrl,\r\n        uint256 _songId,\r\n        uint256 _limitDays,\r\n        uint256 _minLikes\r\n    ) public payable {\r\n        setPublicChainlinkToken();\r\n        owner = msg.sender;\r\n        songUrl = _songUrl;\r\n        song = _songId;\r\n        minLikes = _minLikes;\r\n\r\n        OfferList offerList = OfferList(offerListAddr);\r\n        offerList.addOffer(address(this));\r\n\r\n        finishTime = now + _limitDays * 1 minutes; // Set minutes instead of days in testing\r\n    }\r\n\r\n    /**\r\n     * Allows users to introduce their VideoUrl and be able to participate\r\n     */\r\n    function applyToOffer(string memory _videoUrl) public {\r\n      require(!applied, \"Someone already applied\");\r\n      applied = true;\r\n      applier = msg.sender;\r\n      videoUrl = _videoUrl;\r\n      checkMusicId(ORACLE_ADDRESS, JOB_ID, _videoUrl);\r\n    }\r\n\r\n  function checkMusicId(\r\n    address _oracle,\r\n    string memory _jobId,\r\n    string memory _videoUrl\r\n  ) private {\r\n    Chainlink.Request memory req = buildChainlinkRequest(\r\n      stringToBytes32(_jobId),\r\n      address(this),\r\n      this.fulfillMusicId.selector\r\n    );\r\n    req.add(\"videoUrl\", _videoUrl);\r\n    req.add(\"copyPath\", \"result.musicId\");\r\n    sendChainlinkRequestTo(_oracle, req, ORACLE_PAYMENT);\r\n  }\r\n\r\n  function fulfillMusicId(bytes32 _requestId, uint256 _musicId)\r\n    public\r\n    recordChainlinkFulfillment(_requestId)\r\n  {\r\n    if (song != _musicId) {\r\n      applied = false;\r\n      emit ApplicationFulfillment(_requestId, videoUrl, false);\r\n    } else {\r\n      emit ApplicationFulfillment(_requestId, videoUrl, true);\r\n      requestLikesAfterNDays(ORACLE_ADDRESS, JOB_ID_WITHSLEEP, videoUrl);\r\n    }\r\n  }\r\n\r\n    /**\r\n     *\r\n     * Params:\r\n     *\r\n     *      Oracle: Address of the Orcale contract that the node is listed - 0xfa42eB0C75B4593b4377D19b6f0edB4Abc705D54\r\n     *      JobId: Id of the Job we are willing to return - 98e390a5427946cfa113a14dbe839b21 - 8925c5bf32a94e39840341efa343d2f2\r\n     *      VideoUrl: Link of the tiktok video we want to extract info from\r\n     */\r\n  function requestLikesAfterNDays(\r\n    address _oracle,\r\n    string memory _jobId,\r\n    string memory _videoUrl\r\n  ) private {\r\n    Chainlink.Request memory req = buildChainlinkRequest(\r\n      stringToBytes32(_jobId),\r\n      address(this),\r\n      this.fulfillLikesCount.selector\r\n    );\r\n    req.addUint(\"until\", finishTime);\r\n    req.add(\"videoUrl\", _videoUrl);\r\n    req.add(\"copyPath\", \"result.likes\");\r\n    sendChainlinkRequestTo(_oracle, req, ORACLE_PAYMENT);\r\n  }\r\n\r\n    /**\r\n     * Callback function\r\n     */\r\n  function fulfillLikesCount(bytes32 _requestId, uint256 _likes)\r\n    public\r\n    recordChainlinkFulfillment(_requestId)\r\n  {\r\n    emit RequestLikesFulfilled(_requestId, _likes);\r\n    transferFunds(_likes);\r\n  }\r\n\r\n  function transferFunds(uint256 _likes) private {\r\n    uint256 value = address(this).balance;\r\n    require(value > 0, \"This contract has no balance\");\r\n    if (minLikes < _likes) {\r\n      applier.transfer(value);\r\n    } else {\r\n      owner.transfer(value);\r\n    }\r\n    // Also send the link tokens back if it had some left\r\n    LinkTokenInterface link = LinkTokenInterface(\r\n      chainlinkTokenAddress()\r\n    );\r\n    require(\r\n      link.transfer(owner, link.balanceOf(address(this))),\r\n      \"Unable to transfer\"\r\n    );\r\n  }\r\n\r\n\r\n    // ----------------------\r\n    function stringToBytes32(string memory source)\r\n        private\r\n        pure\r\n        returns (bytes32 result)\r\n    {\r\n        bytes memory tempEmptyStringTest = bytes(source);\r\n        if (tempEmptyStringTest.length == 0) {\r\n            return 0x0;\r\n        }\r\n\r\n        assembly {\r\n            // solhint-disable-line no-inline-assembly\r\n            result := mload(add(source, 32))\r\n        }\r\n    }\r\n\r\n    modifier onlyOwner() {\r\n        require(msg.sender == owner);\r\n        _;\r\n    }\r\n\r\n    function withdrawEth() public onlyOwner {\r\n        require(finishTime < now);\r\n        msg.sender.transfer(address(this).balance);\r\n    }\r\n}\r\n",
  "sourcePath": "D:/Storage/Code/SponsorProject/angular-dapp/contracts/Offer.sol",
  "compiler": {
    "name": "solc",
    "version": "0.6.6+commit.6c089d02.Emscripten.clang"
  },
  "schemaVersion": "3.3.1",
  "updatedAt": "2020-11-25T20:42:20.091Z",
  "devdoc": {
    "methods": {}
  },
  "userdoc": {
    "methods": {
      "applyToOffer(string)": {
        "notice": "Allows users to introduce their VideoUrl and be able to participate"
      },
      "fulfillLikesCount(bytes32,uint256)": {
        "notice": "Callback function"
      }
    }
  }
}