{
  "contractName": "Offer",
  "abi": [
    {
      "inputs": [
        {
          "internalType": "string",
          "name": "_songUrl",
          "type": "string"
        },
        {
          "internalType": "uint256",
          "name": "_songId",
          "type": "uint256"
        },
        {
          "internalType": "uint256",
          "name": "_limitDays",
          "type": "uint256"
        },
        {
          "internalType": "uint256",
          "name": "_minLikes",
          "type": "uint256"
        }
      ],
      "stateMutability": "payable",
      "type": "constructor"
    },
    {
      "anonymous": false,
      "inputs": [
        {
          "indexed": true,
          "internalType": "bytes32",
          "name": "requestId",
          "type": "bytes32"
        },
        {
          "indexed": true,
          "internalType": "string",
          "name": "videoUrl",
          "type": "string"
        },
        {
          "indexed": false,
          "internalType": "bool",
          "name": "isFulfilled",
          "type": "bool"
        }
      ],
      "name": "ApplicationFulfillment",
      "type": "event"
    },
    {
      "anonymous": false,
      "inputs": [
        {
          "indexed": true,
          "internalType": "bytes32",
          "name": "id",
          "type": "bytes32"
        }
      ],
      "name": "ChainlinkCancelled",
      "type": "event"
    },
    {
      "anonymous": false,
      "inputs": [
        {
          "indexed": true,
          "internalType": "bytes32",
          "name": "id",
          "type": "bytes32"
        }
      ],
      "name": "ChainlinkFulfilled",
      "type": "event"
    },
    {
      "anonymous": false,
      "inputs": [
        {
          "indexed": true,
          "internalType": "bytes32",
          "name": "id",
          "type": "bytes32"
        }
      ],
      "name": "ChainlinkRequested",
      "type": "event"
    },
    {
      "anonymous": false,
      "inputs": [
        {
          "indexed": true,
          "internalType": "bytes32",
          "name": "requestId",
          "type": "bytes32"
        },
        {
          "indexed": true,
          "internalType": "uint256",
          "name": "likes",
          "type": "uint256"
        }
      ],
      "name": "RequestLikesFulfilled",
      "type": "event"
    },
    {
      "inputs": [],
      "name": "applied",
      "outputs": [
        {
          "internalType": "bool",
          "name": "",
          "type": "bool"
        }
      ],
      "stateMutability": "view",
      "type": "function"
    },
    {
      "inputs": [],
      "name": "finishTime",
      "outputs": [
        {
          "internalType": "uint256",
          "name": "",
          "type": "uint256"
        }
      ],
      "stateMutability": "view",
      "type": "function"
    },
    {
      "inputs": [],
      "name": "minLikes",
      "outputs": [
        {
          "internalType": "uint256",
          "name": "",
          "type": "uint256"
        }
      ],
      "stateMutability": "view",
      "type": "function"
    },
    {
      "inputs": [],
      "name": "song",
      "outputs": [
        {
          "internalType": "uint256",
          "name": "",
          "type": "uint256"
        }
      ],
      "stateMutability": "view",
      "type": "function"
    },
    {
      "inputs": [],
      "name": "songUrl",
      "outputs": [
        {
          "internalType": "string",
          "name": "",
          "type": "string"
        }
      ],
      "stateMutability": "view",
      "type": "function"
    },
    {
      "inputs": [],
      "name": "videoUrl",
      "outputs": [
        {
          "internalType": "string",
          "name": "",
          "type": "string"
        }
      ],
      "stateMutability": "view",
      "type": "function"
    },
    {
      "inputs": [],
      "name": "getBalance",
      "outputs": [
        {
          "internalType": "uint256",
          "name": "",
          "type": "uint256"
        }
      ],
      "stateMutability": "view",
      "type": "function"
    },
    {
      "inputs": [
        {
          "internalType": "string",
          "name": "_videoUrl",
          "type": "string"
        }
      ],
      "name": "applyToOffer",
      "outputs": [],
      "stateMutability": "nonpayable",
      "type": "function"
    },
    {
      "inputs": [
        {
          "internalType": "bytes32",
          "name": "_requestId",
          "type": "bytes32"
        },
        {
          "internalType": "uint256",
          "name": "_musicId",
          "type": "uint256"
        }
      ],
      "name": "fulfillMusicId",
      "outputs": [],
      "stateMutability": "nonpayable",
      "type": "function"
    },
    {
      "inputs": [
        {
          "internalType": "bytes32",
          "name": "_requestId",
          "type": "bytes32"
        },
        {
          "internalType": "uint256",
          "name": "_likes",
          "type": "uint256"
        }
      ],
      "name": "fulfillLikesCount",
      "outputs": [],
      "stateMutability": "nonpayable",
      "type": "function"
    }
  ],
  "bytecode": "0x60806040526001600455730b179553e46531397a4092501033dc8883b2235c600660006101000a81548173ffffffffffffffffffffffffffffffffffffffff021916908373ffffffffffffffffffffffffffffffffffffffff1602179055506000600860146101000a81548160ff0219169083151502179055506040516200211d3803806200211d833981810160405260808110156200009e57600080fd5b8101908080516040519392919084640100000000821115620000bf57600080fd5b83820191506020820185811115620000d657600080fd5b8251866001820283011164010000000082111715620000f457600080fd5b8083526020830192505050908051906020019080838360005b838110156200012a5780820151818401526020810190506200010d565b50505050905090810190601f168015620001585780820380516001836020036101000a031916815260200191505b5060405260200180519060200190929190805190602001909291908051906020019092919050505062000190620002cf60201b60201c565b33600760006101000a81548173ffffffffffffffffffffffffffffffffffffffff021916908373ffffffffffffffffffffffffffffffffffffffff16021790555083600a9080519060200190620001e9929190620003bd565b508260098190555080600c819055506000600660009054906101000a900473ffffffffffffffffffffffffffffffffffffffff1690508073ffffffffffffffffffffffffffffffffffffffff1663a553269b306040518263ffffffff1660e01b8152600401808273ffffffffffffffffffffffffffffffffffffffff1673ffffffffffffffffffffffffffffffffffffffff168152602001915050600060405180830381600087803b1580156200029f57600080fd5b505af1158015620002b4573d6000803e3d6000fd5b50505050603c83024201600b8190555050505050506200046c565b6200037773c89bd4e1632d3a43cb03aaad5262cbe4038bc57173ffffffffffffffffffffffffffffffffffffffff166338cc48316040518163ffffffff1660e01b815260040160206040518083038186803b1580156200032e57600080fd5b505afa15801562000343573d6000803e3d6000fd5b505050506040513d60208110156200035a57600080fd5b81019080805190602001909291905050506200037960201b60201c565b565b80600260006101000a81548173ffffffffffffffffffffffffffffffffffffffff021916908373ffffffffffffffffffffffffffffffffffffffff16021790555050565b828054600181600116156101000203166002900490600052602060002090601f016020900481019282601f106200040057805160ff191683800117855562000431565b8280016001018555821562000431579182015b828111156200043057825182559160200191906001019062000413565b5b50905062000440919062000444565b5090565b6200046991905b80821115620004655760008160009055506001016200044b565b5090565b90565b611ca1806200047c6000396000f3fe608060405234801561001057600080fd5b506004361061009e5760003560e01c80636d4478b9116100665780636d4478b9146101f057806373c9fbe21461021257806381c6e29d1461029557806382662b25146102b3578063852979db146102eb5761009e565b806312065fe0146100a35780634cfd881e146100c15780635958611e146100df5780635aeecb67146100fd57806360f7aa6d14610135575b600080fd5b6100ab61036e565b6040518082815260200191505060405180910390f35b6100c961038d565b6040518082815260200191505060405180910390f35b6100e7610393565b6040518082815260200191505060405180910390f35b6101336004803603604081101561011357600080fd5b810190808035906020019092919080359060200190929190505050610399565b005b6101ee6004803603602081101561014b57600080fd5b810190808035906020019064010000000081111561016857600080fd5b82018360208201111561017a57600080fd5b8035906020019184600183028401116401000000008311171561019c57600080fd5b91908080601f016020809104026020016040519081016040528093929190818152602001838380828437600081840152601f19601f8201169050808301925050505050505091929192905050506104f0565b005b6101f861063d565b604051808215151515815260200191505060405180910390f35b61021a610650565b6040518080602001828103825283818151815260200191508051906020019080838360005b8381101561025a57808201518184015260208101905061023f565b50505050905090810190601f1680156102875780820380516001836020036101000a031916815260200191505b509250505060405180910390f35b61029d6106ee565b6040518082815260200191505060405180910390f35b6102e9600480360360408110156102c957600080fd5b8101908080359060200190929190803590602001909291905050506106f4565b005b6102f3610a7a565b6040518080602001828103825283818151815260200191508051906020019080838360005b83811015610333578082015181840152602081019050610318565b50505050905090810190601f1680156103605780820380516001836020036101000a031916815260200191505b509250505060405180910390f35b60003073ffffffffffffffffffffffffffffffffffffffff1631905090565b60095481565b600b5481565b816005600082815260200190815260200160002060009054906101000a900473ffffffffffffffffffffffffffffffffffffffff1673ffffffffffffffffffffffffffffffffffffffff163373ffffffffffffffffffffffffffffffffffffffff1614610451576040517f08c379a0000000000000000000000000000000000000000000000000000000008152600401808060200182810382526028815260200180611c446028913960400191505060405180910390fd5b6005600082815260200190815260200160002060006101000a81549073ffffffffffffffffffffffffffffffffffffffff0219169055807f7cc135e0cebb02c3480ae5d74d377283180a2601f8f644edf7987b009316c63a60405160405180910390a281837ff2e50ff355b58598267c58d6d90d42bd3902436bb885f7e3b551263be1fd252960405160405180910390a36104eb82610b18565b505050565b600860149054906101000a900460ff1615610573576040517f08c379a00000000000000000000000000000000000000000000000000000000081526004018080602001828103825260178152602001807f536f6d656f6e6520616c7265616479206170706c69656400000000000000000081525060200191505060405180910390fd5b6001600860146101000a81548160ff02191690831515021790555033600860006101000a81548173ffffffffffffffffffffffffffffffffffffffff021916908373ffffffffffffffffffffffffffffffffffffffff16021790555080600d90805190602001906105e5929190611af4565b5061063a73fa42eb0c75b4593b4377d19b6f0edb4abc705d546040518060400160405280602081526020017f393865333930613534323739343663666131313361313464626538333962323181525083610e9a565b50565b600860149054906101000a900460ff1681565b600d8054600181600116156101000203166002900480601f0160208091040260200160405190810160405280929190818152602001828054600181600116156101000203166002900480156106e65780601f106106bb576101008083540402835291602001916106e6565b820191906000526020600020905b8154815290600101906020018083116106c957829003601f168201915b505050505081565b600c5481565b816005600082815260200190815260200160002060009054906101000a900473ffffffffffffffffffffffffffffffffffffffff1673ffffffffffffffffffffffffffffffffffffffff163373ffffffffffffffffffffffffffffffffffffffff16146107ac576040517f08c379a0000000000000000000000000000000000000000000000000000000008152600401808060200182810382526028815260200180611c446028913960400191505060405180910390fd5b6005600082815260200190815260200160002060006101000a81549073ffffffffffffffffffffffffffffffffffffffff0219169055807f7cc135e0cebb02c3480ae5d74d377283180a2601f8f644edf7987b009316c63a60405160405180910390a281600954146108df576000600860146101000a81548160ff021916908315150217905550600d60405180828054600181600116156101000203166002900480156108905780601f1061086e576101008083540402835291820191610890565b820191906000526020600020905b81548152906001019060200180831161087c575b50509150506040518091039020837f1134f5287c18317276966d00ecd22983fdd043795d82216e767e834fd30aa9126000604051808215151515815260200191505060405180910390a3610a75565b600d604051808280546001816001161561010002031660029004801561093c5780601f1061091a57610100808354040283529182019161093c565b820191906000526020600020905b815481529060010190602001808311610928575b50509150506040518091039020837f1134f5287c18317276966d00ecd22983fdd043795d82216e767e834fd30aa9126001604051808215151515815260200191505060405180910390a3610a7473fa42eb0c75b4593b4377d19b6f0edb4abc705d546040518060400160405280602081526020017f3839323563356266333261393465333938343033343165666133343364326632815250600d8054600181600116156101000203166002900480601f016020809104026020016040519081016040528092919081815260200182805460018160011615610100020316600290048015610a6a5780601f10610a3f57610100808354040283529160200191610a6a565b820191906000526020600020905b815481529060010190602001808311610a4d57829003601f168201915b5050505050610fa4565b5b505050565b600a8054600181600116156101000203166002900480601f016020809104026020016040519081016040528092919081815260200182805460018160011615610100020316600290048015610b105780601f10610ae557610100808354040283529160200191610b10565b820191906000526020600020905b815481529060010190602001808311610af357829003601f168201915b505050505081565b6000610b2261036e565b905060008111610b9a576040517f08c379a000000000000000000000000000000000000000000000000000000000815260040180806020018281038252601c8152602001807f5468697320636f6e747261637420686173206e6f2062616c616e63650000000081525060200191505060405180910390fd5b81600c541015610c1257600860009054906101000a900473ffffffffffffffffffffffffffffffffffffffff1673ffffffffffffffffffffffffffffffffffffffff166108fc829081150290604051600060405180830381858888f19350505050158015610c0c573d6000803e3d6000fd5b50610e96565b600760009054906101000a900473ffffffffffffffffffffffffffffffffffffffff1673ffffffffffffffffffffffffffffffffffffffff166108fc829081150290604051600060405180830381858888f19350505050158015610c7a573d6000803e3d6000fd5b506000610c856110fa565b90508073ffffffffffffffffffffffffffffffffffffffff1663a9059cbb600760009054906101000a900473ffffffffffffffffffffffffffffffffffffffff168373ffffffffffffffffffffffffffffffffffffffff166370a08231306040518263ffffffff1660e01b8152600401808273ffffffffffffffffffffffffffffffffffffffff1673ffffffffffffffffffffffffffffffffffffffff16815260200191505060206040518083038186803b158015610d4357600080fd5b505afa158015610d57573d6000803e3d6000fd5b505050506040513d6020811015610d6d57600080fd5b81019080805190602001909291905050506040518363ffffffff1660e01b8152600401808373ffffffffffffffffffffffffffffffffffffffff1673ffffffffffffffffffffffffffffffffffffffff16815260200182815260200192505050602060405180830381600087803b158015610de757600080fd5b505af1158015610dfb573d6000803e3d6000fd5b505050506040513d6020811015610e1157600080fd5b8101908080519060200190929190505050610e94576040517f08c379a00000000000000000000000000000000000000000000000000000000081526004018080602001828103825260128152602001807f556e61626c6520746f207472616e73666572000000000000000000000000000081525060200191505060405180910390fd5b505b5050565b610ea2611b74565b610ebc610eae84611124565b306382662b2560e01b61114f565b9050610f086040518060400160405280600881526020017f766964656f55726c00000000000000000000000000000000000000000000000081525083836111809092919063ffffffff16565b610f876040518060400160405280600881526020017f636f7079506174680000000000000000000000000000000000000000000000008152506040518060400160405280600e81526020017f726573756c742e6d757369634964000000000000000000000000000000000000815250836111809092919063ffffffff16565b610f9d8482670de0b6b3a76400006001026111b3565b5050505050565b610fac611b74565b610fc6610fb884611124565b30635aeecb6760e01b61114f565b90506110146040518060400160405280600581526020017f756e74696c000000000000000000000000000000000000000000000000000000815250600b548361146b9092919063ffffffff16565b61105e6040518060400160405280600881526020017f766964656f55726c00000000000000000000000000000000000000000000000081525083836111809092919063ffffffff16565b6110dd6040518060400160405280600881526020017f636f7079506174680000000000000000000000000000000000000000000000008152506040518060400160405280600c81526020017f726573756c742e6c696b65730000000000000000000000000000000000000000815250836111809092919063ffffffff16565b6110f38482670de0b6b3a76400006001026111b3565b5050505050565b6000600260009054906101000a900473ffffffffffffffffffffffffffffffffffffffff16905090565b60006060829050600081511415611141576000801b91505061114a565b60208301519150505b919050565b611157611b74565b61115f611b74565b6111768585858461149e909392919063ffffffff16565b9150509392505050565b61119782846080015161154e90919063ffffffff16565b6111ae81846080015161154e90919063ffffffff16565b505050565b600030600454604051602001808373ffffffffffffffffffffffffffffffffffffffff1673ffffffffffffffffffffffffffffffffffffffff1660601b815260140182815260200192505050604051602081830303815290604052805190602001209050600454836060018181525050836005600083815260200190815260200160002060006101000a81548173ffffffffffffffffffffffffffffffffffffffff021916908373ffffffffffffffffffffffffffffffffffffffff160217905550807fb5e6e01e79f91267dc17b4e6314d5d4d03593d2ceee0fbb452b750bd70ea5af960405160405180910390a2600260009054906101000a900473ffffffffffffffffffffffffffffffffffffffff1673ffffffffffffffffffffffffffffffffffffffff16634000aea085846112eb87611573565b6040518463ffffffff1660e01b8152600401808473ffffffffffffffffffffffffffffffffffffffff1673ffffffffffffffffffffffffffffffffffffffff16815260200183815260200180602001828103825283818151815260200191508051906020019080838360005b83811015611372578082015181840152602081019050611357565b50505050905090810190601f16801561139f5780820380516001836020036101000a031916815260200191505b50945050505050602060405180830381600087803b1580156113c057600080fd5b505af11580156113d4573d6000803e3d6000fd5b505050506040513d60208110156113ea57600080fd5b8101908080519060200190929190505050611450576040517f08c379a0000000000000000000000000000000000000000000000000000000008152600401808060200182810382526023815260200180611c216023913960400191505060405180910390fd5b60016004600082825401925050819055508090509392505050565b61148282846080015161154e90919063ffffffff16565b61149981846080015161173f90919063ffffffff16565b505050565b6114a6611b74565b6114b6856080015161010061174f565b508385600001818152505082856020019073ffffffffffffffffffffffffffffffffffffffff16908173ffffffffffffffffffffffffffffffffffffffff16815250508185604001907bffffffffffffffffffffffffffffffffffffffffffffffffffffffff191690817bffffffffffffffffffffffffffffffffffffffffffffffffffffffff191681525050849050949350505050565b61155b82600383516117a3565b61156e81836118e890919063ffffffff16565b505050565b6060634042994660e01b60008084600001518560200151866040015187606001516001896080015160000151604051602401808973ffffffffffffffffffffffffffffffffffffffff1673ffffffffffffffffffffffffffffffffffffffff1681526020018881526020018781526020018673ffffffffffffffffffffffffffffffffffffffff1673ffffffffffffffffffffffffffffffffffffffff168152602001857bffffffffffffffffffffffffffffffffffffffffffffffffffffffff19167bffffffffffffffffffffffffffffffffffffffffffffffffffffffff1916815260200184815260200183815260200180602001828103825283818151815260200191508051906020019080838360005b838110156116a2578082015181840152602081019050611687565b50505050905090810190601f1680156116cf5780820380516001836020036101000a031916815260200191505b509950505050505050505050604051602081830303815290604052907bffffffffffffffffffffffffffffffffffffffffffffffffffffffff19166020820180517bffffffffffffffffffffffffffffffffffffffffffffffffffffffff83818316178352505050509050919050565b61174b826000836117a3565b5050565b611757611be1565b60006020838161176357fe5b061461177c576020828161177357fe5b06602003820191505b81836020018181525050604051808452600081528281016020016040525082905092915050565b601781116117d0576117ca8160058460ff16901b60ff16178461190a90919063ffffffff16565b506118e3565b60ff8111611812576117f5601860058460ff16901b178461190a90919063ffffffff16565b5061180c8160018561192a9092919063ffffffff16565b506118e2565b61ffff811161185557611838601960058460ff16901b178461190a90919063ffffffff16565b5061184f8160028561192a9092919063ffffffff16565b506118e1565b63ffffffff811161189a5761187d601a60058460ff16901b178461190a90919063ffffffff16565b506118948160048561192a9092919063ffffffff16565b506118e0565b67ffffffffffffffff81116118df576118c6601b60058460ff16901b178461190a90919063ffffffff16565b506118dd8160088561192a9092919063ffffffff16565b505b5b5b5b5b505050565b6118f0611be1565b6119028384600001515184855161194c565b905092915050565b611912611be1565b6119228384600001515184611a05565b905092915050565b611932611be1565b611943848560000151518585611a53565b90509392505050565b611954611be1565b825182111561196257600080fd5b8460200151828501111561198d5761198c8560026119868860200151888701611ab4565b02611ad0565b5b6000808651805187602083010193508088870111156119ac5787860182525b60208701925050505b602084106119d857805182526020820191506020810190506020840393506119b5565b60006001856020036101000a03905080198251168184511681811785525050879350505050949350505050565b611a0d611be1565b83602001518310611a2a57611a29846002866020015102611ad0565b5b8351805160208583010184815381861415611a46576001820183525b5050508390509392505050565b611a5b611be1565b84602001518483011115611a7957611a7885600286850102611ad0565b5b60006001836101000a0390508551838682010185831982511617815281518588011115611aa65784870182525b505085915050949350505050565b600081831115611ac657829050611aca565b8190505b92915050565b606082600001519050611ae3838361174f565b50611aee83826118e8565b50505050565b828054600181600116156101000203166002900490600052602060002090601f016020900481019282601f10611b3557805160ff1916838001178555611b63565b82800160010185558215611b63579182015b82811115611b62578251825591602001919060010190611b47565b5b509050611b709190611bfb565b5090565b6040518060a0016040528060008019168152602001600073ffffffffffffffffffffffffffffffffffffffff16815260200160007bffffffffffffffffffffffffffffffffffffffffffffffffffffffff1916815260200160008152602001611bdb611be1565b81525090565b604051806040016040528060608152602001600081525090565b611c1d91905b80821115611c19576000816000905550600101611c01565b5090565b9056fe756e61626c6520746f207472616e73666572416e6443616c6c20746f206f7261636c65536f75726365206d75737420626520746865206f7261636c65206f66207468652072657175657374a2646970667358221220f68a72877eae4d051412852301f06cbb7f519cd7aa8086626b76b42d5fc8094d64736f6c63430006060033",
  "immutableReferences": {},
  "source": "pragma solidity 0.6.6;\r\n\r\n// import \"https://github.com/smartcontractkit/chainlink/evm-contracts/src/v0.6/ChainlinkClient.sol\"; // Remix dev\r\nimport \"@chainlink/contracts/src/v0.6/ChainlinkClient.sol\"; //Local Dev (npm)\r\nimport \"./OfferList.sol\";\r\n\r\ncontract Offer is ChainlinkClient {\r\n    uint256 constant private ORACLE_PAYMENT = 1 * LINK; // Price per job\r\n    address constant private ORACLE_ADDRESS = 0xfa42eB0C75B4593b4377D19b6f0edB4Abc705D54;\r\n    string constant private JOB_ID = \"98e390a5427946cfa113a14dbe839b21\"; // tiktok Job\r\n    string constant private JOB_ID_WITHSLEEP = \"8925c5bf32a94e39840341efa343d2f2\"; // tiktok Job with sleep\r\n    address offerListAddr = 0x0b179553E46531397A4092501033dC8883B2235c;\r\n    address payable owner;\r\n    address payable applier;\r\n\r\n    bool public applied = false;\r\n    uint256 public song;\r\n    string public songUrl;\r\n    uint256 public finishTime;\r\n    uint256 public minLikes;\r\n    string public videoUrl;\r\n\r\n    event ApplicationFulfillment(\r\n        bytes32 indexed requestId,\r\n        string indexed videoUrl,\r\n        bool isFulfilled\r\n    );\r\n\r\n    event RequestLikesFulfilled(\r\n        bytes32 indexed requestId,\r\n        uint256 indexed likes\r\n    );\r\n\r\n    constructor (\r\n        string memory _songUrl,\r\n        uint256 _songId,\r\n        uint256 _limitDays,\r\n        uint256 _minLikes\r\n        ) public payable  {\r\n        setPublicChainlinkToken();\r\n        owner = msg.sender;\r\n        songUrl = _songUrl;\r\n        song = _songId;\r\n        minLikes = _minLikes;\r\n\r\n        OfferList offerList = OfferList(offerListAddr);\r\n        offerList.addOffer(address(this));\r\n\r\n        finishTime = now + _limitDays * 1 minutes; // Set minutes instead of days in testing\r\n    }\r\n\r\n\r\n    function getBalance() public view returns (uint){\r\n        return address(this).balance;\r\n    }\r\n\r\n    /**\r\n     * Allows users to introduce their VideoUrl and be able to participate\r\n     */\r\n    function applyToOffer(string memory _videoUrl) public {\r\n        require(!applied, 'Someone already applied');\r\n        applied = true;\r\n        applier = msg.sender;\r\n        videoUrl = _videoUrl;\r\n        checkMusicId(ORACLE_ADDRESS, JOB_ID, _videoUrl);\r\n    }\r\n\r\n    function checkMusicId(address _oracle, string memory _jobId, string memory _videoUrl) private  {\r\n        Chainlink.Request memory req = buildChainlinkRequest(stringToBytes32(_jobId), address(this), this.fulfillMusicId.selector);\r\n        req.add(\"videoUrl\", _videoUrl);\r\n        req.add(\"copyPath\", \"result.musicId\");\r\n        sendChainlinkRequestTo(_oracle, req, ORACLE_PAYMENT);\r\n    }\r\n\r\n    function fulfillMusicId(bytes32 _requestId, uint256 _musicId) public recordChainlinkFulfillment(_requestId) {\r\n        if (song != _musicId) {\r\n            applied = false;\r\n            emit ApplicationFulfillment(_requestId, videoUrl, false);\r\n        } else {\r\n            emit ApplicationFulfillment(_requestId, videoUrl, true);\r\n            requestLikesAfterNDays(ORACLE_ADDRESS, JOB_ID_WITHSLEEP, videoUrl);\r\n        }\r\n    }\r\n\r\n    /**\r\n     *\r\n     * Params:\r\n     *\r\n     *      Oracle: Address of the Orcale contract that the node is listed - 0xfa42eB0C75B4593b4377D19b6f0edB4Abc705D54\r\n     *      JobId: Id of the Job we are willing to return - 98e390a5427946cfa113a14dbe839b21 - 8925c5bf32a94e39840341efa343d2f2\r\n     *      VideoUrl: Link of the tiktok video we want to extract info from\r\n     */\r\n    function requestLikesAfterNDays(address _oracle, string memory _jobId, string memory _videoUrl) private {\r\n        Chainlink.Request memory req = buildChainlinkRequest(stringToBytes32(_jobId), address(this), this.fulfillLikesCount.selector);\r\n        req.addUint(\"until\", finishTime);\r\n        req.add(\"videoUrl\", _videoUrl);\r\n        req.add(\"copyPath\", \"result.likes\");\r\n        sendChainlinkRequestTo(_oracle, req, ORACLE_PAYMENT);\r\n    }\r\n\r\n    /**\r\n     * Callback function\r\n     */\r\n    function fulfillLikesCount(bytes32 _requestId, uint256 _likes) public recordChainlinkFulfillment(_requestId) {\r\n        emit RequestLikesFulfilled(_requestId, _likes);\r\n        transferFunds(_likes);\r\n    }\r\n\r\n    function transferFunds(uint256 _likes) private {\r\n        uint value = getBalance();\r\n        require(value > 0, 'This contract has no balance');\r\n        if (minLikes < _likes) {\r\n            applier.transfer(value);\r\n        } else {\r\n            owner.transfer(value);\r\n            // Also send the link tokens back if it had some left\r\n            LinkTokenInterface link = LinkTokenInterface(chainlinkTokenAddress());\r\n            require(link.transfer(owner, link.balanceOf(address(this))), \"Unable to transfer\");\r\n        }\r\n    }\r\n\r\n    // ----------------------\r\n    function stringToBytes32(string memory source) private pure returns (bytes32 result) {\r\n        bytes memory tempEmptyStringTest = bytes(source);\r\n        if (tempEmptyStringTest.length == 0) {\r\n          return 0x0;\r\n        }\r\n\r\n        assembly { // solhint-disable-line no-inline-assembly\r\n          result := mload(add(source, 32))\r\n        }\r\n    }\r\n}\r\n",
  "sourcePath": "D:/Storage/Code/SponsorProject/angular-dapp/contracts/Offer.sol",
  "compiler": {
    "name": "solc",
    "version": "0.6.6+commit.6c089d02.Emscripten.clang"
  },
  "schemaVersion": "3.3.1",
  "updatedAt": "2020-11-20T21:20:46.475Z",
  "devdoc": {
    "methods": {}
  },
  "userdoc": {
    "methods": {
      "applyToOffer(string)": {
        "notice": "Allows users to introduce their VideoUrl and be able to participate"
      },
      "fulfillLikesCount(bytes32,uint256)": {
        "notice": "Callback function"
      }
    }
  }
}