{
  "contractName": "SponsorProject_Factory",
  "abi": [
    {
      "inputs": [],
      "stateMutability": "nonpayable",
      "type": "constructor"
    },
    {
      "inputs": [
        {
          "internalType": "string",
          "name": "_songUrl",
          "type": "string"
        },
        {
          "internalType": "uint256",
          "name": "_songId",
          "type": "uint256"
        },
        {
          "internalType": "uint256",
          "name": "_limitDays",
          "type": "uint256"
        },
        {
          "internalType": "uint256",
          "name": "_minLikes",
          "type": "uint256"
        }
      ],
      "name": "createOffer",
      "outputs": [],
      "stateMutability": "payable",
      "type": "function"
    },
    {
      "inputs": [],
      "name": "getOffers",
      "outputs": [
        {
          "internalType": "address[]",
          "name": "",
          "type": "address[]"
        }
      ],
      "stateMutability": "view",
      "type": "function"
    }
  ],
  "bytecode": "0x608060405234801561001057600080fd5b50612143806100206000396000f3fe6080604052600436106100295760003560e01c80633ee992ee1461002e578063fcd0c8e71461009a575b600080fd5b34801561003a57600080fd5b50610043610173565b6040518080602001828103825283818151815260200191508051906020019060200280838360005b8381101561008657808201518184015260208101905061006b565b505050509050019250505060405180910390f35b610171600480360360808110156100b057600080fd5b81019080803590602001906401000000008111156100cd57600080fd5b8201836020820111156100df57600080fd5b8035906020019184600183028401116401000000008311171561010157600080fd5b91908080601f016020809104026020016040519081016040528093929190818152602001838380828437600081840152601f19601f820116905080830192505050505050509192919290803590602001909291908035906020019092919080359060200190929190505050610201565b005b606060008054806020026020016040519081016040528092919081815260200182805480156101f757602002820191906000526020600020905b8160009054906101000a900473ffffffffffffffffffffffffffffffffffffffff1673ffffffffffffffffffffffffffffffffffffffff16815260200190600101908083116101ad575b5050505050905090565b6000348585858560405161021490610322565b8080602001858152602001848152602001838152602001828103825286818151815260200191508051906020019080838360005b83811015610263578082015181840152602081019050610248565b50505050905090810190601f1680156102905780820380516001836020036101000a031916815260200191505b50955050505050506040518091039082f09050801580156102b5573d6000803e3d6000fd5b5090506000819080600181540180825580915050600190039060005260206000200160009091909190916101000a81548173ffffffffffffffffffffffffffffffffffffffff021916908373ffffffffffffffffffffffffffffffffffffffff1602179055505050505050565b611dde806103308339019056fe6080604052600160045560405162001dde38038062001dde833981810160405260808110156200002e57600080fd5b81019080805160405193929190846401000000008211156200004f57600080fd5b838201915060208201858111156200006657600080fd5b82518660018202830111640100000000821117156200008457600080fd5b8083526020830192505050908051906020019080838360005b83811015620000ba5780820151818401526020810190506200009d565b50505050905090810190601f168015620000e85780820380516001836020036101000a031916815260200191505b50604052602001805190602001909291908051906020019092919080519060200190929190505050620001206200019960201b60201c565b33600660006101000a81548173ffffffffffffffffffffffffffffffffffffffff021916908373ffffffffffffffffffffffffffffffffffffffff16021790555083600890805190602001906200017992919062000287565b50826007819055508160098190555080600a819055505050505062000336565b6200024173c89bd4e1632d3a43cb03aaad5262cbe4038bc57173ffffffffffffffffffffffffffffffffffffffff166338cc48316040518163ffffffff1660e01b815260040160206040518083038186803b158015620001f857600080fd5b505afa1580156200020d573d6000803e3d6000fd5b505050506040513d60208110156200022457600080fd5b81019080805190602001909291905050506200024360201b60201c565b565b80600260006101000a81548173ffffffffffffffffffffffffffffffffffffffff021916908373ffffffffffffffffffffffffffffffffffffffff16021790555050565b828054600181600116156101000203166002900490600052602060002090601f016020900481019282601f10620002ca57805160ff1916838001178555620002fb565b82800160010185558215620002fb579182015b82811115620002fa578251825591602001919060010190620002dd565b5b5090506200030a91906200030e565b5090565b6200033391905b808211156200032f57600081600090555060010162000315565b5090565b90565b611a9880620003466000396000f3fe608060405234801561001057600080fd5b50600436106100cf5760003560e01c80638dc654a21161008c578063cd3665be11610066578063cd3665be14610533578063d3b37b07146105b6578063ed968866146105d4578063f712cdbf146105f2576100cf565b80638dc654a2146103ad578063a0ef91df146103b7578063c4805d3d146103c1576100cf565b806312065fe0146100d4578063318bf38d146100f2578063516b7527146101105780635aeecb671461028257806360f7aa6d146102ba57806382662b2514610375575b600080fd5b6100dc610610565b6040518082815260200191505060405180910390f35b6100fa61062f565b6040518082815260200191505060405180910390f35b6102806004803603606081101561012657600080fd5b81019080803573ffffffffffffffffffffffffffffffffffffffff1690602001909291908035906020019064010000000081111561016357600080fd5b82018360208201111561017557600080fd5b8035906020019184600183028401116401000000008311171561019757600080fd5b91908080601f016020809104026020016040519081016040528093929190818152602001838380828437600081840152601f19601f820116905080830192505050505050509192919290803590602001906401000000008111156101fa57600080fd5b82018360208201111561020c57600080fd5b8035906020019184600183028401116401000000008311171561022e57600080fd5b91908080601f016020809104026020016040519081016040528093929190818152602001838380828437600081840152601f19601f820116905080830192505050505050509192919290505050610639565b005b6102b86004803603604081101561029857600080fd5b810190808035906020019092919080359060200190929190505050610743565b005b610373600480360360208110156102d057600080fd5b81019080803590602001906401000000008111156102ed57600080fd5b8201836020820111156102ff57600080fd5b8035906020019184600183028401116401000000008311171561032157600080fd5b91908080601f016020809104026020016040519081016040528093929190818152602001838380828437600081840152601f19601f8201169050808301925050505050505091929192905050506108a0565b005b6103ab6004803603604081101561038b57600080fd5b810190808035906020019092919080359060200190929190505050610938565b005b6103b5610ad7565b005b6103bf610cd1565b005b610531600480360360608110156103d757600080fd5b81019080803573ffffffffffffffffffffffffffffffffffffffff1690602001909291908035906020019064010000000081111561041457600080fd5b82018360208201111561042657600080fd5b8035906020019184600183028401116401000000008311171561044857600080fd5b91908080601f016020809104026020016040519081016040528093929190818152602001838380828437600081840152601f19601f820116905080830192505050505050509192919290803590602001906401000000008111156104ab57600080fd5b8201836020820111156104bd57600080fd5b803590602001918460018302840111640100000000831117156104df57600080fd5b91908080601f016020809104026020016040519081016040528093929190818152602001838380828437600081840152601f19601f820116905080830192505050505050509192919290505050610d21565b005b61053b610e2b565b6040518080602001828103825283818151815260200191508051906020019080838360005b8381101561057b578082015181840152602081019050610560565b50505050905090810190601f1680156105a85780820380516001836020036101000a031916815260200191505b509250505060405180910390f35b6105be610ecd565b6040518082815260200191505060405180910390f35b6105dc610ed7565b6040518082815260200191505060405180910390f35b6105fa610ee1565b6040518082815260200191505060405180910390f35b60003073ffffffffffffffffffffffffffffffffffffffff1631905090565b6000600754905090565b610641611990565b61065b61064d84610eeb565b30635aeecb6760e01b610f16565b90506106a76040518060400160405280600881526020017f766964656f55726c0000000000000000000000000000000000000000000000008152508383610f479092919063ffffffff16565b6107266040518060400160405280600881526020017f636f7079506174680000000000000000000000000000000000000000000000008152506040518060400160405280601181526020017f726573756c742e6c696b6573436f756e7400000000000000000000000000000081525083610f479092919063ffffffff16565b61073c8482670de0b6b3a7640000600102610f7a565b5050505050565b816005600082815260200190815260200160002060009054906101000a900473ffffffffffffffffffffffffffffffffffffffff1673ffffffffffffffffffffffffffffffffffffffff163373ffffffffffffffffffffffffffffffffffffffff16146107fb576040517f08c379a0000000000000000000000000000000000000000000000000000000008152600401808060200182810382526028815260200180611a3b6028913960400191505060405180910390fd5b6005600082815260200190815260200160002060006101000a81549073ffffffffffffffffffffffffffffffffffffffff0219169055807f7cc135e0cebb02c3480ae5d74d377283180a2601f8f644edf7987b009316c63a60405160405180910390a281837ff2e50ff355b58598267c58d6d90d42bd3902436bb885f7e3b551263be1fd252960405160405180910390a381600b8190555061089b611232565b505050565b33600c60006101000a81548173ffffffffffffffffffffffffffffffffffffffff021916908373ffffffffffffffffffffffffffffffffffffffff16021790555061093573fa42eb0c75b4593b4377d19b6f0edb4abc705d546040518060400160405280602081526020017f393865333930613534323739343663666131313361313464626538333962323181525083610d21565b50565b816005600082815260200190815260200160002060009054906101000a900473ffffffffffffffffffffffffffffffffffffffff1673ffffffffffffffffffffffffffffffffffffffff163373ffffffffffffffffffffffffffffffffffffffff16146109f0576040517f08c379a0000000000000000000000000000000000000000000000000000000008152600401808060200182810382526028815260200180611a3b6028913960400191505060405180910390fd5b6005600082815260200190815260200160002060006101000a81549073ffffffffffffffffffffffffffffffffffffffff0219169055807f7cc135e0cebb02c3480ae5d74d377283180a2601f8f644edf7987b009316c63a60405160405180910390a28160075414610aca576040517f08c379a00000000000000000000000000000000000000000000000000000000081526004018080602001828103825260168152602001807f4d7573696320496420646f65736e2774206d617463680000000000000000000081525060200191505060405180910390fd5b610ad2611232565b505050565b6000610ae1611320565b90508073ffffffffffffffffffffffffffffffffffffffff1663a9059cbb338373ffffffffffffffffffffffffffffffffffffffff166370a08231306040518263ffffffff1660e01b8152600401808273ffffffffffffffffffffffffffffffffffffffff1673ffffffffffffffffffffffffffffffffffffffff16815260200191505060206040518083038186803b158015610b7d57600080fd5b505afa158015610b91573d6000803e3d6000fd5b505050506040513d6020811015610ba757600080fd5b81019080805190602001909291905050506040518363ffffffff1660e01b8152600401808373ffffffffffffffffffffffffffffffffffffffff1673ffffffffffffffffffffffffffffffffffffffff16815260200182815260200192505050602060405180830381600087803b158015610c2157600080fd5b505af1158015610c35573d6000803e3d6000fd5b505050506040513d6020811015610c4b57600080fd5b8101908080519060200190929190505050610cce576040517f08c379a00000000000000000000000000000000000000000000000000000000081526004018080602001828103825260128152602001807f556e61626c6520746f207472616e73666572000000000000000000000000000081525060200191505060405180910390fd5b50565b3373ffffffffffffffffffffffffffffffffffffffff166108fc610cf3610610565b9081150290604051600060405180830381858888f19350505050158015610d1e573d6000803e3d6000fd5b50565b610d29611990565b610d43610d3584610eeb565b306382662b2560e01b610f16565b9050610d8f6040518060400160405280600881526020017f766964656f55726c0000000000000000000000000000000000000000000000008152508383610f479092919063ffffffff16565b610e0e6040518060400160405280600881526020017f636f7079506174680000000000000000000000000000000000000000000000008152506040518060400160405280601881526020017f726573756c742e6d757369634d6574612e6d757369634964000000000000000081525083610f479092919063ffffffff16565b610e248482670de0b6b3a7640000600102610f7a565b5050505050565b606060088054600181600116156101000203166002900480601f016020809104026020016040519081016040528092919081815260200182805460018160011615610100020316600290048015610ec35780601f10610e9857610100808354040283529160200191610ec3565b820191906000526020600020905b815481529060010190602001808311610ea657829003601f168201915b5050505050905090565b6000600954905090565b6000600b54905090565b6000600a54905090565b60006060829050600081511415610f08576000801b915050610f11565b60208301519150505b919050565b610f1e611990565b610f26611990565b610f3d8585858461134a909392919063ffffffff16565b9150509392505050565b610f5e8284608001516113fa90919063ffffffff16565b610f758184608001516113fa90919063ffffffff16565b505050565b600030600454604051602001808373ffffffffffffffffffffffffffffffffffffffff1673ffffffffffffffffffffffffffffffffffffffff1660601b815260140182815260200192505050604051602081830303815290604052805190602001209050600454836060018181525050836005600083815260200190815260200160002060006101000a81548173ffffffffffffffffffffffffffffffffffffffff021916908373ffffffffffffffffffffffffffffffffffffffff160217905550807fb5e6e01e79f91267dc17b4e6314d5d4d03593d2ceee0fbb452b750bd70ea5af960405160405180910390a2600260009054906101000a900473ffffffffffffffffffffffffffffffffffffffff1673ffffffffffffffffffffffffffffffffffffffff16634000aea085846110b28761141f565b6040518463ffffffff1660e01b8152600401808473ffffffffffffffffffffffffffffffffffffffff1673ffffffffffffffffffffffffffffffffffffffff16815260200183815260200180602001828103825283818151815260200191508051906020019080838360005b8381101561113957808201518184015260208101905061111e565b50505050905090810190601f1680156111665780820380516001836020036101000a031916815260200191505b50945050505050602060405180830381600087803b15801561118757600080fd5b505af115801561119b573d6000803e3d6000fd5b505050506040513d60208110156111b157600080fd5b8101908080519060200190929190505050611217576040517f08c379a0000000000000000000000000000000000000000000000000000000008152600401808060200182810382526023815260200180611a186023913960400191505060405180910390fd5b60016004600082825401925050819055508090509392505050565b600061123c610610565b9050600081116112b4576040517f08c379a000000000000000000000000000000000000000000000000000000000815260040180806020018281038252601c8152602001807f5468697320636f6e747261637420686173206e6f2062616c616e63650000000081525060200191505060405180910390fd5b600c60009054906101000a900473ffffffffffffffffffffffffffffffffffffffff1673ffffffffffffffffffffffffffffffffffffffff166108fc829081150290604051600060405180830381858888f1935050505015801561131c573d6000803e3d6000fd5b5050565b6000600260009054906101000a900473ffffffffffffffffffffffffffffffffffffffff16905090565b611352611990565b61136285608001516101006115eb565b508385600001818152505082856020019073ffffffffffffffffffffffffffffffffffffffff16908173ffffffffffffffffffffffffffffffffffffffff16815250508185604001907bffffffffffffffffffffffffffffffffffffffffffffffffffffffff191690817bffffffffffffffffffffffffffffffffffffffffffffffffffffffff191681525050849050949350505050565b611407826003835161163f565b61141a818361178490919063ffffffff16565b505050565b6060634042994660e01b60008084600001518560200151866040015187606001516001896080015160000151604051602401808973ffffffffffffffffffffffffffffffffffffffff1673ffffffffffffffffffffffffffffffffffffffff1681526020018881526020018781526020018673ffffffffffffffffffffffffffffffffffffffff1673ffffffffffffffffffffffffffffffffffffffff168152602001857bffffffffffffffffffffffffffffffffffffffffffffffffffffffff19167bffffffffffffffffffffffffffffffffffffffffffffffffffffffff1916815260200184815260200183815260200180602001828103825283818151815260200191508051906020019080838360005b8381101561154e578082015181840152602081019050611533565b50505050905090810190601f16801561157b5780820380516001836020036101000a031916815260200191505b509950505050505050505050604051602081830303815290604052907bffffffffffffffffffffffffffffffffffffffffffffffffffffffff19166020820180517bffffffffffffffffffffffffffffffffffffffffffffffffffffffff83818316178352505050509050919050565b6115f36119fd565b6000602083816115ff57fe5b0614611618576020828161160f57fe5b06602003820191505b81836020018181525050604051808452600081528281016020016040525082905092915050565b6017811161166c576116668160058460ff16901b60ff1617846117a690919063ffffffff16565b5061177f565b60ff81116116ae57611691601860058460ff16901b17846117a690919063ffffffff16565b506116a8816001856117c69092919063ffffffff16565b5061177e565b61ffff81116116f1576116d4601960058460ff16901b17846117a690919063ffffffff16565b506116eb816002856117c69092919063ffffffff16565b5061177d565b63ffffffff811161173657611719601a60058460ff16901b17846117a690919063ffffffff16565b50611730816004856117c69092919063ffffffff16565b5061177c565b67ffffffffffffffff811161177b57611762601b60058460ff16901b17846117a690919063ffffffff16565b50611779816008856117c69092919063ffffffff16565b505b5b5b5b5b505050565b61178c6119fd565b61179e838460000151518485516117e8565b905092915050565b6117ae6119fd565b6117be83846000015151846118a1565b905092915050565b6117ce6119fd565b6117df8485600001515185856118ef565b90509392505050565b6117f06119fd565b82518211156117fe57600080fd5b84602001518285011115611829576118288560026118228860200151888701611950565b0261196c565b5b6000808651805187602083010193508088870111156118485787860182525b60208701925050505b602084106118745780518252602082019150602081019050602084039350611851565b60006001856020036101000a03905080198251168184511681811785525050879350505050949350505050565b6118a96119fd565b836020015183106118c6576118c584600286602001510261196c565b5b83518051602085830101848153818614156118e2576001820183525b5050508390509392505050565b6118f76119fd565b84602001518483011115611915576119148560028685010261196c565b5b60006001836101000a03905085518386820101858319825116178152815185880111156119425784870182525b505085915050949350505050565b60008183111561196257829050611966565b8190505b92915050565b60608260000151905061197f83836115eb565b5061198a8382611784565b50505050565b6040518060a0016040528060008019168152602001600073ffffffffffffffffffffffffffffffffffffffff16815260200160007bffffffffffffffffffffffffffffffffffffffffffffffffffffffff19168152602001600081526020016119f76119fd565b81525090565b60405180604001604052806060815260200160008152509056fe756e61626c6520746f207472616e73666572416e6443616c6c20746f206f7261636c65536f75726365206d75737420626520746865206f7261636c65206f66207468652072657175657374a26469706673582212209601c6dc93cf44174afa68aa9c462b6013250e43ef62abfef54b8bad46a2bebe64736f6c63430006060033a2646970667358221220aa49eac4fd767ed779cffc89c8179664091bb9c363ce2ce5fb91a71575514dd364736f6c63430006060033",
  "immutableReferences": {},
  "source": "pragma solidity 0.6.6;\r\n\r\nimport \"./TikTokOffer.sol\";\r\n\r\ncontract SponsorProject_Factory {\r\n    address[] offerList;\r\n\r\n    constructor() public {}\r\n\r\n    function createOffer(\r\n        string memory _songUrl,\r\n        uint256  _songId,\r\n        uint256 _limitDays,\r\n        uint256 _minLikes\r\n    ) public payable {\r\n        TikTokOffer newOffer = (new TikTokOffer){value:msg.value}(_songUrl,_songId,_limitDays,_minLikes);\r\n        offerList.push(address(newOffer));\r\n    }\r\n\r\n    function getOffers() public view returns (address[] memory) {\r\n        return offerList;\r\n    }\r\n}",
  "sourcePath": "D:/Storage/Code/SponsorProject/angular-dapp/contracts/OfferFactory.sol",
  "compiler": {
    "name": "solc",
    "version": "0.6.6+commit.6c089d02.Emscripten.clang"
  },
  "schemaVersion": "3.3.1",
  "updatedAt": "2020-11-10T18:15:25.772Z",
  "devdoc": {
    "methods": {}
  },
  "userdoc": {
    "methods": {}
  }
}