{
  "contractName": "TikTokOffer",
  "abi": [
    {
      "inputs": [
        {
          "internalType": "uint256",
          "name": "_song",
          "type": "uint256"
        },
        {
          "internalType": "uint256",
          "name": "_limitDays",
          "type": "uint256"
        },
        {
          "internalType": "uint256",
          "name": "_minLikes",
          "type": "uint256"
        }
      ],
      "stateMutability": "payable",
      "type": "constructor"
    },
    {
      "anonymous": false,
      "inputs": [
        {
          "indexed": true,
          "internalType": "bytes32",
          "name": "id",
          "type": "bytes32"
        }
      ],
      "name": "ChainlinkCancelled",
      "type": "event"
    },
    {
      "anonymous": false,
      "inputs": [
        {
          "indexed": true,
          "internalType": "bytes32",
          "name": "id",
          "type": "bytes32"
        }
      ],
      "name": "ChainlinkFulfilled",
      "type": "event"
    },
    {
      "anonymous": false,
      "inputs": [
        {
          "indexed": true,
          "internalType": "bytes32",
          "name": "id",
          "type": "bytes32"
        }
      ],
      "name": "ChainlinkRequested",
      "type": "event"
    },
    {
      "anonymous": false,
      "inputs": [
        {
          "indexed": true,
          "internalType": "bytes32",
          "name": "requestId",
          "type": "bytes32"
        },
        {
          "indexed": true,
          "internalType": "uint256",
          "name": "likes",
          "type": "uint256"
        }
      ],
      "name": "RequestLikesFulfilled",
      "type": "event"
    },
    {
      "inputs": [],
      "name": "getBalance",
      "outputs": [
        {
          "internalType": "uint256",
          "name": "",
          "type": "uint256"
        }
      ],
      "stateMutability": "view",
      "type": "function"
    },
    {
      "inputs": [],
      "name": "getMusicId",
      "outputs": [
        {
          "internalType": "uint256",
          "name": "",
          "type": "uint256"
        }
      ],
      "stateMutability": "view",
      "type": "function"
    },
    {
      "inputs": [
        {
          "internalType": "string",
          "name": "_videoUrl",
          "type": "string"
        }
      ],
      "name": "applyToOffer",
      "outputs": [],
      "stateMutability": "nonpayable",
      "type": "function"
    },
    {
      "inputs": [
        {
          "internalType": "address",
          "name": "_oracle",
          "type": "address"
        },
        {
          "internalType": "string",
          "name": "_jobId",
          "type": "string"
        },
        {
          "internalType": "string",
          "name": "_videoUrl",
          "type": "string"
        }
      ],
      "name": "checkMusicUsed",
      "outputs": [],
      "stateMutability": "nonpayable",
      "type": "function"
    },
    {
      "inputs": [
        {
          "internalType": "bytes32",
          "name": "_requestId",
          "type": "bytes32"
        },
        {
          "internalType": "uint256",
          "name": "_musicId",
          "type": "uint256"
        }
      ],
      "name": "fulfillMusicId",
      "outputs": [],
      "stateMutability": "nonpayable",
      "type": "function"
    },
    {
      "inputs": [
        {
          "internalType": "address",
          "name": "_oracle",
          "type": "address"
        },
        {
          "internalType": "string",
          "name": "_jobId",
          "type": "string"
        },
        {
          "internalType": "string",
          "name": "_videoUrl",
          "type": "string"
        }
      ],
      "name": "requestLikes",
      "outputs": [],
      "stateMutability": "nonpayable",
      "type": "function"
    },
    {
      "inputs": [
        {
          "internalType": "bytes32",
          "name": "_requestId",
          "type": "bytes32"
        },
        {
          "internalType": "uint256",
          "name": "_likes",
          "type": "uint256"
        }
      ],
      "name": "fulfillLikesCount",
      "outputs": [],
      "stateMutability": "nonpayable",
      "type": "function"
    },
    {
      "inputs": [],
      "name": "withdrawLink",
      "outputs": [],
      "stateMutability": "nonpayable",
      "type": "function"
    },
    {
      "inputs": [],
      "name": "withdrawEth",
      "outputs": [],
      "stateMutability": "nonpayable",
      "type": "function"
    },
    {
      "inputs": [],
      "name": "getLikesCount",
      "outputs": [
        {
          "internalType": "uint256",
          "name": "",
          "type": "uint256"
        }
      ],
      "stateMutability": "view",
      "type": "function"
    }
  ],
  "bytecode": "0x6080604052600160045560405162001aa938038062001aa98339818101604052606081101561002d57600080fd5b810190808051906020019092919080519060200190929190805190602001909291905050506100606100be60201b60201c565b33600660006101000a81548173ffffffffffffffffffffffffffffffffffffffff021916908373ffffffffffffffffffffffffffffffffffffffff1602179055508260078190555081600881905550806009819055505050506101a7565b61016173c89bd4e1632d3a43cb03aaad5262cbe4038bc57173ffffffffffffffffffffffffffffffffffffffff166338cc48316040518163ffffffff1660e01b815260040160206040518083038186803b15801561011b57600080fd5b505afa15801561012f573d6000803e3d6000fd5b505050506040513d602081101561014557600080fd5b810190808051906020019092919050505061016360201b60201c565b565b80600260006101000a81548173ffffffffffffffffffffffffffffffffffffffff021916908373ffffffffffffffffffffffffffffffffffffffff16021790555050565b6118f280620001b76000396000f3fe608060405234801561001057600080fd5b506004361061009e5760003560e01c806382662b251161006657806382662b25146103445780638dc654a21461037c578063a0ef91df14610386578063c4805d3d14610390578063ed968866146105025761009e565b806312065fe0146100a3578063318bf38d146100c1578063516b7527146100df5780635aeecb671461025157806360f7aa6d14610289575b600080fd5b6100ab610520565b6040518082815260200191505060405180910390f35b6100c961053f565b6040518082815260200191505060405180910390f35b61024f600480360360608110156100f557600080fd5b81019080803573ffffffffffffffffffffffffffffffffffffffff1690602001909291908035906020019064010000000081111561013257600080fd5b82018360208201111561014457600080fd5b8035906020019184600183028401116401000000008311171561016657600080fd5b91908080601f016020809104026020016040519081016040528093929190818152602001838380828437600081840152601f19601f820116905080830192505050505050509192919290803590602001906401000000008111156101c957600080fd5b8201836020820111156101db57600080fd5b803590602001918460018302840111640100000000831117156101fd57600080fd5b91908080601f016020809104026020016040519081016040528093929190818152602001838380828437600081840152601f19601f820116905080830192505050505050509192919290505050610549565b005b6102876004803603604081101561026757600080fd5b810190808035906020019092919080359060200190929190505050610653565b005b6103426004803603602081101561029f57600080fd5b81019080803590602001906401000000008111156102bc57600080fd5b8201836020820111156102ce57600080fd5b803590602001918460018302840111640100000000831117156102f057600080fd5b91908080601f016020809104026020016040519081016040528093929190818152602001838380828437600081840152601f19601f8201169050808301925050505050505091929192905050506107b0565b005b61037a6004803603604081101561035a57600080fd5b810190808035906020019092919080359060200190929190505050610848565b005b6103846109e7565b005b61038e610be1565b005b610500600480360360608110156103a657600080fd5b81019080803573ffffffffffffffffffffffffffffffffffffffff169060200190929190803590602001906401000000008111156103e357600080fd5b8201836020820111156103f557600080fd5b8035906020019184600183028401116401000000008311171561041757600080fd5b91908080601f016020809104026020016040519081016040528093929190818152602001838380828437600081840152601f19601f8201169050808301925050505050505091929192908035906020019064010000000081111561047a57600080fd5b82018360208201111561048c57600080fd5b803590602001918460018302840111640100000000831117156104ae57600080fd5b91908080601f016020809104026020016040519081016040528093929190818152602001838380828437600081840152601f19601f820116905080830192505050505050509192919290505050610c31565b005b61050a610d3b565b6040518082815260200191505060405180910390f35b60003073ffffffffffffffffffffffffffffffffffffffff1631905090565b6000600754905090565b6105516117ea565b61056b61055d84610d45565b30635aeecb6760e01b610d70565b90506105b76040518060400160405280600881526020017f766964656f55726c0000000000000000000000000000000000000000000000008152508383610da19092919063ffffffff16565b6106366040518060400160405280600881526020017f636f7079506174680000000000000000000000000000000000000000000000008152506040518060400160405280601181526020017f726573756c742e6c696b6573436f756e7400000000000000000000000000000081525083610da19092919063ffffffff16565b61064c8482670de0b6b3a7640000600102610dd4565b5050505050565b816005600082815260200190815260200160002060009054906101000a900473ffffffffffffffffffffffffffffffffffffffff1673ffffffffffffffffffffffffffffffffffffffff163373ffffffffffffffffffffffffffffffffffffffff161461070b576040517f08c379a00000000000000000000000000000000000000000000000000000000081526004018080602001828103825260288152602001806118956028913960400191505060405180910390fd5b6005600082815260200190815260200160002060006101000a81549073ffffffffffffffffffffffffffffffffffffffff0219169055807f7cc135e0cebb02c3480ae5d74d377283180a2601f8f644edf7987b009316c63a60405160405180910390a281837ff2e50ff355b58598267c58d6d90d42bd3902436bb885f7e3b551263be1fd252960405160405180910390a381600a819055506107ab61108c565b505050565b33600b60006101000a81548173ffffffffffffffffffffffffffffffffffffffff021916908373ffffffffffffffffffffffffffffffffffffffff16021790555061084573fa42eb0c75b4593b4377d19b6f0edb4abc705d546040518060400160405280602081526020017f393865333930613534323739343663666131313361313464626538333962323181525083610c31565b50565b816005600082815260200190815260200160002060009054906101000a900473ffffffffffffffffffffffffffffffffffffffff1673ffffffffffffffffffffffffffffffffffffffff163373ffffffffffffffffffffffffffffffffffffffff1614610900576040517f08c379a00000000000000000000000000000000000000000000000000000000081526004018080602001828103825260288152602001806118956028913960400191505060405180910390fd5b6005600082815260200190815260200160002060006101000a81549073ffffffffffffffffffffffffffffffffffffffff0219169055807f7cc135e0cebb02c3480ae5d74d377283180a2601f8f644edf7987b009316c63a60405160405180910390a281600754146109da576040517f08c379a00000000000000000000000000000000000000000000000000000000081526004018080602001828103825260168152602001807f4d7573696320496420646f65736e2774206d617463680000000000000000000081525060200191505060405180910390fd5b6109e261108c565b505050565b60006109f161117a565b90508073ffffffffffffffffffffffffffffffffffffffff1663a9059cbb338373ffffffffffffffffffffffffffffffffffffffff166370a08231306040518263ffffffff1660e01b8152600401808273ffffffffffffffffffffffffffffffffffffffff1673ffffffffffffffffffffffffffffffffffffffff16815260200191505060206040518083038186803b158015610a8d57600080fd5b505afa158015610aa1573d6000803e3d6000fd5b505050506040513d6020811015610ab757600080fd5b81019080805190602001909291905050506040518363ffffffff1660e01b8152600401808373ffffffffffffffffffffffffffffffffffffffff1673ffffffffffffffffffffffffffffffffffffffff16815260200182815260200192505050602060405180830381600087803b158015610b3157600080fd5b505af1158015610b45573d6000803e3d6000fd5b505050506040513d6020811015610b5b57600080fd5b8101908080519060200190929190505050610bde576040517f08c379a00000000000000000000000000000000000000000000000000000000081526004018080602001828103825260128152602001807f556e61626c6520746f207472616e73666572000000000000000000000000000081525060200191505060405180910390fd5b50565b3373ffffffffffffffffffffffffffffffffffffffff166108fc610c03610520565b9081150290604051600060405180830381858888f19350505050158015610c2e573d6000803e3d6000fd5b50565b610c396117ea565b610c53610c4584610d45565b306382662b2560e01b610d70565b9050610c9f6040518060400160405280600881526020017f766964656f55726c0000000000000000000000000000000000000000000000008152508383610da19092919063ffffffff16565b610d1e6040518060400160405280600881526020017f636f7079506174680000000000000000000000000000000000000000000000008152506040518060400160405280601881526020017f726573756c742e6d757369634d6574612e6d757369634964000000000000000081525083610da19092919063ffffffff16565b610d348482670de0b6b3a7640000600102610dd4565b5050505050565b6000600a54905090565b60006060829050600081511415610d62576000801b915050610d6b565b60208301519150505b919050565b610d786117ea565b610d806117ea565b610d97858585846111a4909392919063ffffffff16565b9150509392505050565b610db882846080015161125490919063ffffffff16565b610dcf81846080015161125490919063ffffffff16565b505050565b600030600454604051602001808373ffffffffffffffffffffffffffffffffffffffff1673ffffffffffffffffffffffffffffffffffffffff1660601b815260140182815260200192505050604051602081830303815290604052805190602001209050600454836060018181525050836005600083815260200190815260200160002060006101000a81548173ffffffffffffffffffffffffffffffffffffffff021916908373ffffffffffffffffffffffffffffffffffffffff160217905550807fb5e6e01e79f91267dc17b4e6314d5d4d03593d2ceee0fbb452b750bd70ea5af960405160405180910390a2600260009054906101000a900473ffffffffffffffffffffffffffffffffffffffff1673ffffffffffffffffffffffffffffffffffffffff16634000aea08584610f0c87611279565b6040518463ffffffff1660e01b8152600401808473ffffffffffffffffffffffffffffffffffffffff1673ffffffffffffffffffffffffffffffffffffffff16815260200183815260200180602001828103825283818151815260200191508051906020019080838360005b83811015610f93578082015181840152602081019050610f78565b50505050905090810190601f168015610fc05780820380516001836020036101000a031916815260200191505b50945050505050602060405180830381600087803b158015610fe157600080fd5b505af1158015610ff5573d6000803e3d6000fd5b505050506040513d602081101561100b57600080fd5b8101908080519060200190929190505050611071576040517f08c379a00000000000000000000000000000000000000000000000000000000081526004018080602001828103825260238152602001806118726023913960400191505060405180910390fd5b60016004600082825401925050819055508090509392505050565b6000611096610520565b90506000811161110e576040517f08c379a000000000000000000000000000000000000000000000000000000000815260040180806020018281038252601c8152602001807f5468697320636f6e747261637420686173206e6f2062616c616e63650000000081525060200191505060405180910390fd5b600b60009054906101000a900473ffffffffffffffffffffffffffffffffffffffff1673ffffffffffffffffffffffffffffffffffffffff166108fc829081150290604051600060405180830381858888f19350505050158015611176573d6000803e3d6000fd5b5050565b6000600260009054906101000a900473ffffffffffffffffffffffffffffffffffffffff16905090565b6111ac6117ea565b6111bc8560800151610100611445565b508385600001818152505082856020019073ffffffffffffffffffffffffffffffffffffffff16908173ffffffffffffffffffffffffffffffffffffffff16815250508185604001907bffffffffffffffffffffffffffffffffffffffffffffffffffffffff191690817bffffffffffffffffffffffffffffffffffffffffffffffffffffffff191681525050849050949350505050565b6112618260038351611499565b61127481836115de90919063ffffffff16565b505050565b6060634042994660e01b60008084600001518560200151866040015187606001516001896080015160000151604051602401808973ffffffffffffffffffffffffffffffffffffffff1673ffffffffffffffffffffffffffffffffffffffff1681526020018881526020018781526020018673ffffffffffffffffffffffffffffffffffffffff1673ffffffffffffffffffffffffffffffffffffffff168152602001857bffffffffffffffffffffffffffffffffffffffffffffffffffffffff19167bffffffffffffffffffffffffffffffffffffffffffffffffffffffff1916815260200184815260200183815260200180602001828103825283818151815260200191508051906020019080838360005b838110156113a857808201518184015260208101905061138d565b50505050905090810190601f1680156113d55780820380516001836020036101000a031916815260200191505b509950505050505050505050604051602081830303815290604052907bffffffffffffffffffffffffffffffffffffffffffffffffffffffff19166020820180517bffffffffffffffffffffffffffffffffffffffffffffffffffffffff83818316178352505050509050919050565b61144d611857565b60006020838161145957fe5b0614611472576020828161146957fe5b06602003820191505b81836020018181525050604051808452600081528281016020016040525082905092915050565b601781116114c6576114c08160058460ff16901b60ff16178461160090919063ffffffff16565b506115d9565b60ff8111611508576114eb601860058460ff16901b178461160090919063ffffffff16565b50611502816001856116209092919063ffffffff16565b506115d8565b61ffff811161154b5761152e601960058460ff16901b178461160090919063ffffffff16565b50611545816002856116209092919063ffffffff16565b506115d7565b63ffffffff811161159057611573601a60058460ff16901b178461160090919063ffffffff16565b5061158a816004856116209092919063ffffffff16565b506115d6565b67ffffffffffffffff81116115d5576115bc601b60058460ff16901b178461160090919063ffffffff16565b506115d3816008856116209092919063ffffffff16565b505b5b5b5b5b505050565b6115e6611857565b6115f883846000015151848551611642565b905092915050565b611608611857565b61161883846000015151846116fb565b905092915050565b611628611857565b611639848560000151518585611749565b90509392505050565b61164a611857565b825182111561165857600080fd5b846020015182850111156116835761168285600261167c88602001518887016117aa565b026117c6565b5b6000808651805187602083010193508088870111156116a25787860182525b60208701925050505b602084106116ce57805182526020820191506020810190506020840393506116ab565b60006001856020036101000a03905080198251168184511681811785525050879350505050949350505050565b611703611857565b836020015183106117205761171f8460028660200151026117c6565b5b835180516020858301018481538186141561173c576001820183525b5050508390509392505050565b611751611857565b8460200151848301111561176f5761176e856002868501026117c6565b5b60006001836101000a039050855183868201018583198251161781528151858801111561179c5784870182525b505085915050949350505050565b6000818311156117bc578290506117c0565b8190505b92915050565b6060826000015190506117d98383611445565b506117e483826115de565b50505050565b6040518060a0016040528060008019168152602001600073ffffffffffffffffffffffffffffffffffffffff16815260200160007bffffffffffffffffffffffffffffffffffffffffffffffffffffffff1916815260200160008152602001611851611857565b81525090565b60405180604001604052806060815260200160008152509056fe756e61626c6520746f207472616e73666572416e6443616c6c20746f206f7261636c65536f75726365206d75737420626520746865206f7261636c65206f66207468652072657175657374a26469706673582212202c550f36c8a3525f42a459d0c0231426de6050d19dfe7bdd460d5562e78198fa64736f6c63430006060033",
  "immutableReferences": {},
  "source": "pragma solidity 0.6.6;\r\n\r\n// import \"https://github.com/smartcontractkit/chainlink/evm-contracts/src/v0.6/ChainlinkClient.sol\"; // Remix dev\r\nimport \"@chainlink/contracts/src/v0.6/ChainlinkClient.sol\"; //Local Dev (npm)\r\n\r\ncontract TikTokOffer is ChainlinkClient {\r\n    uint256 constant private ORACLE_PAYMENT = 1 * LINK; // Price per job\r\n    address constant private ORACLE_ADDRESS = 0xfa42eB0C75B4593b4377D19b6f0edB4Abc705D54;\r\n    string constant private JOB_ID = \"98e390a5427946cfa113a14dbe839b21\"; // Likes < uint256\r\n    address owner;\r\n    uint256 song;\r\n    uint256 limitDays;\r\n    uint256 minLikes;\r\n\r\n    // for testing:\r\n    uint256 likesCount;\r\n    address payable applier;\r\n\r\n    mapping(address => VideoApplications[]) appliers;\r\n\r\n    struct VideoApplications {\r\n        string videoURL;\r\n        uint numLikes;\r\n    }\r\n\r\n    event RequestLikesFulfilled(\r\n        bytes32 indexed requestId,\r\n        uint256 indexed likes\r\n    );\r\n\r\n    constructor (\r\n        uint256  _song,\r\n        uint256 _limitDays,\r\n        uint256 _minLikes\r\n        ) public payable  {\r\n        setPublicChainlinkToken();\r\n        owner = msg.sender;\r\n        song = _song;\r\n        limitDays = _limitDays;\r\n        minLikes = _minLikes;\r\n    }\r\n\r\n    function getBalance() public view returns (uint){\r\n        return address(this).balance;\r\n    }\r\n    function getMusicId() public view returns (uint256){\r\n        return song;\r\n    }\r\n\r\n    /**\r\n     * Allows users to introduce their VideoUrl and be able to participate\r\n     */\r\n    function applyToOffer(string memory _videoUrl) public {\r\n        applier = msg.sender;\r\n        checkMusicUsed(ORACLE_ADDRESS, JOB_ID, _videoUrl);\r\n                // ALternative: Add all the videos to the list and check them all on the limit day with the minlikes and return a bytes32 with the info needed\r\n    }\r\n\r\n    function checkMusicUsed(address _oracle, string memory _jobId, string memory _videoUrl) public  {\r\n        Chainlink.Request memory req = buildChainlinkRequest(stringToBytes32(_jobId), address(this), this.fulfillMusicId.selector);\r\n        req.add(\"videoUrl\", _videoUrl);\r\n        req.add(\"copyPath\", \"result.musicMeta.musicId\");\r\n        sendChainlinkRequestTo(_oracle, req, ORACLE_PAYMENT);\r\n    }\r\n\r\n    function fulfillMusicId(bytes32 _requestId, uint256 _musicId) public recordChainlinkFulfillment(_requestId) {\r\n        require(song == _musicId, \"Music Id doesn't match\");\r\n        // TODO: Add video to the list?\r\n        transferFunds();\r\n    }\r\n\r\n\r\n    /**\r\n     * Asks for the number of likes and calls the callback function once finished with the result\r\n     *\r\n     * Params:\r\n     *\r\n     *      Oracle: Address of the Orcale contract that the node is listed - 0xfa42eB0C75B4593b4377D19b6f0edB4Abc705D54\r\n     *      JobId: Id of the Job we are willing to return - 98e390a5427946cfa113a14dbe839b21\r\n     *      VideoUrl: Link of the tiktok video we want to extract info from\r\n     */\r\n    function requestLikes(address _oracle, string memory _jobId, string memory _videoUrl) public  {\r\n        Chainlink.Request memory req = buildChainlinkRequest(stringToBytes32(_jobId), address(this), this.fulfillLikesCount.selector);\r\n        req.add(\"videoUrl\", _videoUrl);\r\n        req.add(\"copyPath\", \"result.likesCount\");\r\n        sendChainlinkRequestTo(_oracle, req, ORACLE_PAYMENT);\r\n    }\r\n\r\n    /**\r\n     * Callback function\r\n     */\r\n    function fulfillLikesCount(bytes32 _requestId, uint256 _likes) public recordChainlinkFulfillment(_requestId) {\r\n        emit RequestLikesFulfilled(_requestId, _likes);\r\n        likesCount = _likes;\r\n        transferFunds();\r\n    }\r\n\r\n    // TODO: Pay amount\r\n    function transferFunds() private {\r\n        // TODO: When daylimit reaches\r\n        // TODO: Calculate amount to pay to everybody\r\n        // TODO: transfer rewards to each one that has more than min likes\r\n        uint value = getBalance();\r\n        require(value > 0, 'This contract has no balance');\r\n        applier.transfer(value);\r\n    }\r\n\r\n    // TODO: Extend day limit\r\n    // TODO: Extend Rewards\r\n\r\n\r\n    // ----------------------\r\n    function stringToBytes32(string memory source) private pure returns (bytes32 result) {\r\n        bytes memory tempEmptyStringTest = bytes(source);\r\n        if (tempEmptyStringTest.length == 0) {\r\n          return 0x0;\r\n        }\r\n\r\n        assembly { // solhint-disable-line no-inline-assembly\r\n          result := mload(add(source, 32))\r\n        }\r\n    }\r\n\r\n    function withdrawLink() public  {\r\n        LinkTokenInterface link = LinkTokenInterface(chainlinkTokenAddress());\r\n        require(link.transfer(msg.sender, link.balanceOf(address(this))), \"Unable to transfer\");\r\n    }\r\n\r\n    function withdrawEth() public  {\r\n        msg.sender.transfer(getBalance());\r\n    }\r\n\r\n    function getLikesCount() public view returns(uint256){\r\n        return likesCount;\r\n    }\r\n}\r\n",
  "sourcePath": "C:/Users/xavis/Desktop/SponsorProject/angular-dapp/contracts/TikTokOffer.sol",
  "compiler": {
    "name": "solc",
    "version": "0.6.6+commit.6c089d02.Emscripten.clang"
  },
  "schemaVersion": "3.3.1",
  "updatedAt": "2020-10-27T20:03:12.236Z",
  "devdoc": {
    "methods": {}
  },
  "userdoc": {
    "methods": {
      "applyToOffer(string)": {
        "notice": "Allows users to introduce their VideoUrl and be able to participate"
      },
      "fulfillLikesCount(bytes32,uint256)": {
        "notice": "Callback function"
      },
      "requestLikes(address,string,string)": {
        "notice": "Asks for the number of likes and calls the callback function once finished with the result      * Params:      *      Oracle: Address of the Orcale contract that the node is listed - 0xfa42eB0C75B4593b4377D19b6f0edB4Abc705D54     JobId: Id of the Job we are willing to return - 98e390a5427946cfa113a14dbe839b21     VideoUrl: Link of the tiktok video we want to extract info from"
      }
    }
  }
}