{
  "contractName": "TikTokOffer",
  "abi": [
    {
      "inputs": [
        {
          "internalType": "uint256",
          "name": "_song",
          "type": "uint256"
        },
        {
          "internalType": "uint256",
          "name": "_limitDays",
          "type": "uint256"
        },
        {
          "internalType": "uint256",
          "name": "_minLikes",
          "type": "uint256"
        }
      ],
      "stateMutability": "payable",
      "type": "constructor"
    },
    {
      "anonymous": false,
      "inputs": [
        {
          "indexed": true,
          "internalType": "bytes32",
          "name": "id",
          "type": "bytes32"
        }
      ],
      "name": "ChainlinkCancelled",
      "type": "event"
    },
    {
      "anonymous": false,
      "inputs": [
        {
          "indexed": true,
          "internalType": "bytes32",
          "name": "id",
          "type": "bytes32"
        }
      ],
      "name": "ChainlinkFulfilled",
      "type": "event"
    },
    {
      "anonymous": false,
      "inputs": [
        {
          "indexed": true,
          "internalType": "bytes32",
          "name": "id",
          "type": "bytes32"
        }
      ],
      "name": "ChainlinkRequested",
      "type": "event"
    },
    {
      "anonymous": false,
      "inputs": [
        {
          "indexed": true,
          "internalType": "bytes32",
          "name": "requestId",
          "type": "bytes32"
        },
        {
          "indexed": true,
          "internalType": "uint256",
          "name": "likes",
          "type": "uint256"
        }
      ],
      "name": "RequestLikesFulfilled",
      "type": "event"
    },
    {
      "inputs": [],
      "name": "getBalance",
      "outputs": [
        {
          "internalType": "uint256",
          "name": "",
          "type": "uint256"
        }
      ],
      "stateMutability": "view",
      "type": "function"
    },
    {
      "inputs": [],
      "name": "getMusicId",
      "outputs": [
        {
          "internalType": "uint256",
          "name": "",
          "type": "uint256"
        }
      ],
      "stateMutability": "view",
      "type": "function"
    },
    {
      "inputs": [],
      "name": "getMinLikes",
      "outputs": [
        {
          "internalType": "uint256",
          "name": "",
          "type": "uint256"
        }
      ],
      "stateMutability": "view",
      "type": "function"
    },
    {
      "inputs": [],
      "name": "getLimitDays",
      "outputs": [
        {
          "internalType": "uint256",
          "name": "",
          "type": "uint256"
        }
      ],
      "stateMutability": "view",
      "type": "function"
    },
    {
      "inputs": [
        {
          "internalType": "string",
          "name": "_videoUrl",
          "type": "string"
        }
      ],
      "name": "applyToOffer",
      "outputs": [],
      "stateMutability": "nonpayable",
      "type": "function"
    },
    {
      "inputs": [
        {
          "internalType": "address",
          "name": "_oracle",
          "type": "address"
        },
        {
          "internalType": "string",
          "name": "_jobId",
          "type": "string"
        },
        {
          "internalType": "string",
          "name": "_videoUrl",
          "type": "string"
        }
      ],
      "name": "checkMusicUsed",
      "outputs": [],
      "stateMutability": "nonpayable",
      "type": "function"
    },
    {
      "inputs": [
        {
          "internalType": "bytes32",
          "name": "_requestId",
          "type": "bytes32"
        },
        {
          "internalType": "uint256",
          "name": "_musicId",
          "type": "uint256"
        }
      ],
      "name": "fulfillMusicId",
      "outputs": [],
      "stateMutability": "nonpayable",
      "type": "function"
    },
    {
      "inputs": [
        {
          "internalType": "address",
          "name": "_oracle",
          "type": "address"
        },
        {
          "internalType": "string",
          "name": "_jobId",
          "type": "string"
        },
        {
          "internalType": "string",
          "name": "_videoUrl",
          "type": "string"
        }
      ],
      "name": "requestLikes",
      "outputs": [],
      "stateMutability": "nonpayable",
      "type": "function"
    },
    {
      "inputs": [
        {
          "internalType": "bytes32",
          "name": "_requestId",
          "type": "bytes32"
        },
        {
          "internalType": "uint256",
          "name": "_likes",
          "type": "uint256"
        }
      ],
      "name": "fulfillLikesCount",
      "outputs": [],
      "stateMutability": "nonpayable",
      "type": "function"
    },
    {
      "inputs": [],
      "name": "withdrawLink",
      "outputs": [],
      "stateMutability": "nonpayable",
      "type": "function"
    },
    {
      "inputs": [],
      "name": "withdrawEth",
      "outputs": [],
      "stateMutability": "nonpayable",
      "type": "function"
    },
    {
      "inputs": [],
      "name": "getLikesCount",
      "outputs": [
        {
          "internalType": "uint256",
          "name": "",
          "type": "uint256"
        }
      ],
      "stateMutability": "view",
      "type": "function"
    }
  ],
  "bytecode": "0x6080604052600160045560405162001b0f38038062001b0f8339818101604052606081101561002d57600080fd5b810190808051906020019092919080519060200190929190805190602001909291905050506100606100be60201b60201c565b33600660006101000a81548173ffffffffffffffffffffffffffffffffffffffff021916908373ffffffffffffffffffffffffffffffffffffffff1602179055508260078190555081600881905550806009819055505050506101a7565b61016173c89bd4e1632d3a43cb03aaad5262cbe4038bc57173ffffffffffffffffffffffffffffffffffffffff166338cc48316040518163ffffffff1660e01b815260040160206040518083038186803b15801561011b57600080fd5b505afa15801561012f573d6000803e3d6000fd5b505050506040513d602081101561014557600080fd5b810190808051906020019092919050505061016360201b60201c565b565b80600260006101000a81548173ffffffffffffffffffffffffffffffffffffffff021916908373ffffffffffffffffffffffffffffffffffffffff16021790555050565b61195880620001b76000396000f3fe608060405234801561001057600080fd5b50600436106100b45760003560e01c80638dc654a2116100715780638dc654a214610392578063a0ef91df1461039c578063c4805d3d146103a6578063d3b37b0714610518578063ed96886614610536578063f712cdbf14610554576100b4565b806312065fe0146100b9578063318bf38d146100d7578063516b7527146100f55780635aeecb671461026757806360f7aa6d1461029f57806382662b251461035a575b600080fd5b6100c1610572565b6040518082815260200191505060405180910390f35b6100df610591565b6040518082815260200191505060405180910390f35b6102656004803603606081101561010b57600080fd5b81019080803573ffffffffffffffffffffffffffffffffffffffff1690602001909291908035906020019064010000000081111561014857600080fd5b82018360208201111561015a57600080fd5b8035906020019184600183028401116401000000008311171561017c57600080fd5b91908080601f016020809104026020016040519081016040528093929190818152602001838380828437600081840152601f19601f820116905080830192505050505050509192919290803590602001906401000000008111156101df57600080fd5b8201836020820111156101f157600080fd5b8035906020019184600183028401116401000000008311171561021357600080fd5b91908080601f016020809104026020016040519081016040528093929190818152602001838380828437600081840152601f19601f82011690508083019250505050505050919291929050505061059b565b005b61029d6004803603604081101561027d57600080fd5b8101908080359060200190929190803590602001909291905050506106a5565b005b610358600480360360208110156102b557600080fd5b81019080803590602001906401000000008111156102d257600080fd5b8201836020820111156102e457600080fd5b8035906020019184600183028401116401000000008311171561030657600080fd5b91908080601f016020809104026020016040519081016040528093929190818152602001838380828437600081840152601f19601f820116905080830192505050505050509192919290505050610802565b005b6103906004803603604081101561037057600080fd5b81019080803590602001909291908035906020019092919050505061089a565b005b61039a610a39565b005b6103a4610c33565b005b610516600480360360608110156103bc57600080fd5b81019080803573ffffffffffffffffffffffffffffffffffffffff169060200190929190803590602001906401000000008111156103f957600080fd5b82018360208201111561040b57600080fd5b8035906020019184600183028401116401000000008311171561042d57600080fd5b91908080601f016020809104026020016040519081016040528093929190818152602001838380828437600081840152601f19601f8201169050808301925050505050505091929192908035906020019064010000000081111561049057600080fd5b8201836020820111156104a257600080fd5b803590602001918460018302840111640100000000831117156104c457600080fd5b91908080601f016020809104026020016040519081016040528093929190818152602001838380828437600081840152601f19601f820116905080830192505050505050509192919290505050610c83565b005b610520610d8d565b6040518082815260200191505060405180910390f35b61053e610d97565b6040518082815260200191505060405180910390f35b61055c610da1565b6040518082815260200191505060405180910390f35b60003073ffffffffffffffffffffffffffffffffffffffff1631905090565b6000600754905090565b6105a3611850565b6105bd6105af84610dab565b30635aeecb6760e01b610dd6565b90506106096040518060400160405280600881526020017f766964656f55726c0000000000000000000000000000000000000000000000008152508383610e079092919063ffffffff16565b6106886040518060400160405280600881526020017f636f7079506174680000000000000000000000000000000000000000000000008152506040518060400160405280601181526020017f726573756c742e6c696b6573436f756e7400000000000000000000000000000081525083610e079092919063ffffffff16565b61069e8482670de0b6b3a7640000600102610e3a565b5050505050565b816005600082815260200190815260200160002060009054906101000a900473ffffffffffffffffffffffffffffffffffffffff1673ffffffffffffffffffffffffffffffffffffffff163373ffffffffffffffffffffffffffffffffffffffff161461075d576040517f08c379a00000000000000000000000000000000000000000000000000000000081526004018080602001828103825260288152602001806118fb6028913960400191505060405180910390fd5b6005600082815260200190815260200160002060006101000a81549073ffffffffffffffffffffffffffffffffffffffff0219169055807f7cc135e0cebb02c3480ae5d74d377283180a2601f8f644edf7987b009316c63a60405160405180910390a281837ff2e50ff355b58598267c58d6d90d42bd3902436bb885f7e3b551263be1fd252960405160405180910390a381600a819055506107fd6110f2565b505050565b33600b60006101000a81548173ffffffffffffffffffffffffffffffffffffffff021916908373ffffffffffffffffffffffffffffffffffffffff16021790555061089773fa42eb0c75b4593b4377d19b6f0edb4abc705d546040518060400160405280602081526020017f393865333930613534323739343663666131313361313464626538333962323181525083610c83565b50565b816005600082815260200190815260200160002060009054906101000a900473ffffffffffffffffffffffffffffffffffffffff1673ffffffffffffffffffffffffffffffffffffffff163373ffffffffffffffffffffffffffffffffffffffff1614610952576040517f08c379a00000000000000000000000000000000000000000000000000000000081526004018080602001828103825260288152602001806118fb6028913960400191505060405180910390fd5b6005600082815260200190815260200160002060006101000a81549073ffffffffffffffffffffffffffffffffffffffff0219169055807f7cc135e0cebb02c3480ae5d74d377283180a2601f8f644edf7987b009316c63a60405160405180910390a28160075414610a2c576040517f08c379a00000000000000000000000000000000000000000000000000000000081526004018080602001828103825260168152602001807f4d7573696320496420646f65736e2774206d617463680000000000000000000081525060200191505060405180910390fd5b610a346110f2565b505050565b6000610a436111e0565b90508073ffffffffffffffffffffffffffffffffffffffff1663a9059cbb338373ffffffffffffffffffffffffffffffffffffffff166370a08231306040518263ffffffff1660e01b8152600401808273ffffffffffffffffffffffffffffffffffffffff1673ffffffffffffffffffffffffffffffffffffffff16815260200191505060206040518083038186803b158015610adf57600080fd5b505afa158015610af3573d6000803e3d6000fd5b505050506040513d6020811015610b0957600080fd5b81019080805190602001909291905050506040518363ffffffff1660e01b8152600401808373ffffffffffffffffffffffffffffffffffffffff1673ffffffffffffffffffffffffffffffffffffffff16815260200182815260200192505050602060405180830381600087803b158015610b8357600080fd5b505af1158015610b97573d6000803e3d6000fd5b505050506040513d6020811015610bad57600080fd5b8101908080519060200190929190505050610c30576040517f08c379a00000000000000000000000000000000000000000000000000000000081526004018080602001828103825260128152602001807f556e61626c6520746f207472616e73666572000000000000000000000000000081525060200191505060405180910390fd5b50565b3373ffffffffffffffffffffffffffffffffffffffff166108fc610c55610572565b9081150290604051600060405180830381858888f19350505050158015610c80573d6000803e3d6000fd5b50565b610c8b611850565b610ca5610c9784610dab565b306382662b2560e01b610dd6565b9050610cf16040518060400160405280600881526020017f766964656f55726c0000000000000000000000000000000000000000000000008152508383610e079092919063ffffffff16565b610d706040518060400160405280600881526020017f636f7079506174680000000000000000000000000000000000000000000000008152506040518060400160405280601881526020017f726573756c742e6d757369634d6574612e6d757369634964000000000000000081525083610e079092919063ffffffff16565b610d868482670de0b6b3a7640000600102610e3a565b5050505050565b6000600854905090565b6000600a54905090565b6000600954905090565b60006060829050600081511415610dc8576000801b915050610dd1565b60208301519150505b919050565b610dde611850565b610de6611850565b610dfd8585858461120a909392919063ffffffff16565b9150509392505050565b610e1e8284608001516112ba90919063ffffffff16565b610e358184608001516112ba90919063ffffffff16565b505050565b600030600454604051602001808373ffffffffffffffffffffffffffffffffffffffff1673ffffffffffffffffffffffffffffffffffffffff1660601b815260140182815260200192505050604051602081830303815290604052805190602001209050600454836060018181525050836005600083815260200190815260200160002060006101000a81548173ffffffffffffffffffffffffffffffffffffffff021916908373ffffffffffffffffffffffffffffffffffffffff160217905550807fb5e6e01e79f91267dc17b4e6314d5d4d03593d2ceee0fbb452b750bd70ea5af960405160405180910390a2600260009054906101000a900473ffffffffffffffffffffffffffffffffffffffff1673ffffffffffffffffffffffffffffffffffffffff16634000aea08584610f72876112df565b6040518463ffffffff1660e01b8152600401808473ffffffffffffffffffffffffffffffffffffffff1673ffffffffffffffffffffffffffffffffffffffff16815260200183815260200180602001828103825283818151815260200191508051906020019080838360005b83811015610ff9578082015181840152602081019050610fde565b50505050905090810190601f1680156110265780820380516001836020036101000a031916815260200191505b50945050505050602060405180830381600087803b15801561104757600080fd5b505af115801561105b573d6000803e3d6000fd5b505050506040513d602081101561107157600080fd5b81019080805190602001909291905050506110d7576040517f08c379a00000000000000000000000000000000000000000000000000000000081526004018080602001828103825260238152602001806118d86023913960400191505060405180910390fd5b60016004600082825401925050819055508090509392505050565b60006110fc610572565b905060008111611174576040517f08c379a000000000000000000000000000000000000000000000000000000000815260040180806020018281038252601c8152602001807f5468697320636f6e747261637420686173206e6f2062616c616e63650000000081525060200191505060405180910390fd5b600b60009054906101000a900473ffffffffffffffffffffffffffffffffffffffff1673ffffffffffffffffffffffffffffffffffffffff166108fc829081150290604051600060405180830381858888f193505050501580156111dc573d6000803e3d6000fd5b5050565b6000600260009054906101000a900473ffffffffffffffffffffffffffffffffffffffff16905090565b611212611850565b61122285608001516101006114ab565b508385600001818152505082856020019073ffffffffffffffffffffffffffffffffffffffff16908173ffffffffffffffffffffffffffffffffffffffff16815250508185604001907bffffffffffffffffffffffffffffffffffffffffffffffffffffffff191690817bffffffffffffffffffffffffffffffffffffffffffffffffffffffff191681525050849050949350505050565b6112c782600383516114ff565b6112da818361164490919063ffffffff16565b505050565b6060634042994660e01b60008084600001518560200151866040015187606001516001896080015160000151604051602401808973ffffffffffffffffffffffffffffffffffffffff1673ffffffffffffffffffffffffffffffffffffffff1681526020018881526020018781526020018673ffffffffffffffffffffffffffffffffffffffff1673ffffffffffffffffffffffffffffffffffffffff168152602001857bffffffffffffffffffffffffffffffffffffffffffffffffffffffff19167bffffffffffffffffffffffffffffffffffffffffffffffffffffffff1916815260200184815260200183815260200180602001828103825283818151815260200191508051906020019080838360005b8381101561140e5780820151818401526020810190506113f3565b50505050905090810190601f16801561143b5780820380516001836020036101000a031916815260200191505b509950505050505050505050604051602081830303815290604052907bffffffffffffffffffffffffffffffffffffffffffffffffffffffff19166020820180517bffffffffffffffffffffffffffffffffffffffffffffffffffffffff83818316178352505050509050919050565b6114b36118bd565b6000602083816114bf57fe5b06146114d857602082816114cf57fe5b06602003820191505b81836020018181525050604051808452600081528281016020016040525082905092915050565b6017811161152c576115268160058460ff16901b60ff16178461166690919063ffffffff16565b5061163f565b60ff811161156e57611551601860058460ff16901b178461166690919063ffffffff16565b50611568816001856116869092919063ffffffff16565b5061163e565b61ffff81116115b157611594601960058460ff16901b178461166690919063ffffffff16565b506115ab816002856116869092919063ffffffff16565b5061163d565b63ffffffff81116115f6576115d9601a60058460ff16901b178461166690919063ffffffff16565b506115f0816004856116869092919063ffffffff16565b5061163c565b67ffffffffffffffff811161163b57611622601b60058460ff16901b178461166690919063ffffffff16565b50611639816008856116869092919063ffffffff16565b505b5b5b5b5b505050565b61164c6118bd565b61165e838460000151518485516116a8565b905092915050565b61166e6118bd565b61167e8384600001515184611761565b905092915050565b61168e6118bd565b61169f8485600001515185856117af565b90509392505050565b6116b06118bd565b82518211156116be57600080fd5b846020015182850111156116e9576116e88560026116e28860200151888701611810565b0261182c565b5b6000808651805187602083010193508088870111156117085787860182525b60208701925050505b602084106117345780518252602082019150602081019050602084039350611711565b60006001856020036101000a03905080198251168184511681811785525050879350505050949350505050565b6117696118bd565b836020015183106117865761178584600286602001510261182c565b5b83518051602085830101848153818614156117a2576001820183525b5050508390509392505050565b6117b76118bd565b846020015184830111156117d5576117d48560028685010261182c565b5b60006001836101000a03905085518386820101858319825116178152815185880111156118025784870182525b505085915050949350505050565b60008183111561182257829050611826565b8190505b92915050565b60608260000151905061183f83836114ab565b5061184a8382611644565b50505050565b6040518060a0016040528060008019168152602001600073ffffffffffffffffffffffffffffffffffffffff16815260200160007bffffffffffffffffffffffffffffffffffffffffffffffffffffffff19168152602001600081526020016118b76118bd565b81525090565b60405180604001604052806060815260200160008152509056fe756e61626c6520746f207472616e73666572416e6443616c6c20746f206f7261636c65536f75726365206d75737420626520746865206f7261636c65206f66207468652072657175657374a2646970667358221220f12530cbd2feb06d5039a9cec9587a2fd0674432514eb6d11fbb89e93500e32164736f6c63430006060033",
  "immutableReferences": {},
  "source": "pragma solidity 0.6.6;\r\n\r\n// import \"https://github.com/smartcontractkit/chainlink/evm-contracts/src/v0.6/ChainlinkClient.sol\"; // Remix dev\r\nimport \"@chainlink/contracts/src/v0.6/ChainlinkClient.sol\"; //Local Dev (npm)\r\n\r\ncontract TikTokOffer is ChainlinkClient {\r\n    uint256 constant private ORACLE_PAYMENT = 1 * LINK; // Price per job\r\n    address constant private ORACLE_ADDRESS = 0xfa42eB0C75B4593b4377D19b6f0edB4Abc705D54;\r\n    string constant private JOB_ID = \"98e390a5427946cfa113a14dbe839b21\"; // Likes < uint256\r\n    address owner;\r\n    uint256 song;\r\n    uint256 limitDays;\r\n    uint256 minLikes;\r\n\r\n    // for testing:\r\n    uint256 likesCount;\r\n    address payable applier;\r\n\r\n    mapping(address => VideoApplications[]) appliers;\r\n\r\n    struct VideoApplications {\r\n        string videoURL;\r\n        uint numLikes;\r\n    }\r\n\r\n    event RequestLikesFulfilled(\r\n        bytes32 indexed requestId,\r\n        uint256 indexed likes\r\n    );\r\n\r\n    constructor (\r\n        uint256  _song,\r\n        uint256 _limitDays,\r\n        uint256 _minLikes\r\n        ) public payable  {\r\n        setPublicChainlinkToken();\r\n        owner = msg.sender;\r\n        song = _song;\r\n        limitDays = _limitDays;\r\n        minLikes = _minLikes;\r\n    }\r\n\r\n    function getBalance() public view returns (uint){\r\n        return address(this).balance;\r\n    }\r\n    function getMusicId() public view returns (uint256){\r\n        return song;\r\n    }\r\n    function getMinLikes() public view returns (uint256){\r\n        return minLikes;\r\n    }\r\n    function getLimitDays() public view returns (uint256){\r\n        return limitDays;\r\n    }\r\n\r\n    /**\r\n     * Allows users to introduce their VideoUrl and be able to participate\r\n     */\r\n    function applyToOffer(string memory _videoUrl) public {\r\n        applier = msg.sender;\r\n        checkMusicUsed(ORACLE_ADDRESS, JOB_ID, _videoUrl);\r\n                // ALternative: Add all the videos to the list and check them all on the limit day with the minlikes and return a bytes32 with the info needed\r\n    }\r\n\r\n    function checkMusicUsed(address _oracle, string memory _jobId, string memory _videoUrl) public  {\r\n        Chainlink.Request memory req = buildChainlinkRequest(stringToBytes32(_jobId), address(this), this.fulfillMusicId.selector);\r\n        req.add(\"videoUrl\", _videoUrl);\r\n        req.add(\"copyPath\", \"result.musicMeta.musicId\");\r\n        sendChainlinkRequestTo(_oracle, req, ORACLE_PAYMENT);\r\n    }\r\n\r\n    function fulfillMusicId(bytes32 _requestId, uint256 _musicId) public recordChainlinkFulfillment(_requestId) {\r\n        require(song == _musicId, \"Music Id doesn't match\");\r\n        // TODO: Add video to the list?\r\n        transferFunds();\r\n    }\r\n\r\n\r\n    /**\r\n     * Asks for the number of likes and calls the callback function once finished with the result\r\n     *\r\n     * Params:\r\n     *\r\n     *      Oracle: Address of the Orcale contract that the node is listed - 0xfa42eB0C75B4593b4377D19b6f0edB4Abc705D54\r\n     *      JobId: Id of the Job we are willing to return - 98e390a5427946cfa113a14dbe839b21\r\n     *      VideoUrl: Link of the tiktok video we want to extract info from\r\n     */\r\n    function requestLikes(address _oracle, string memory _jobId, string memory _videoUrl) public  {\r\n        Chainlink.Request memory req = buildChainlinkRequest(stringToBytes32(_jobId), address(this), this.fulfillLikesCount.selector);\r\n        req.add(\"videoUrl\", _videoUrl);\r\n        req.add(\"copyPath\", \"result.likesCount\");\r\n        sendChainlinkRequestTo(_oracle, req, ORACLE_PAYMENT);\r\n    }\r\n\r\n    /**\r\n     * Callback function\r\n     */\r\n    function fulfillLikesCount(bytes32 _requestId, uint256 _likes) public recordChainlinkFulfillment(_requestId) {\r\n        emit RequestLikesFulfilled(_requestId, _likes);\r\n        likesCount = _likes;\r\n        transferFunds();\r\n    }\r\n\r\n    // TODO: Pay amount\r\n    function transferFunds() private {\r\n        // TODO: When daylimit reaches\r\n        // TODO: Calculate amount to pay to everybody\r\n        // TODO: transfer rewards to each one that has more than min likes\r\n        uint value = getBalance();\r\n        require(value > 0, 'This contract has no balance');\r\n        applier.transfer(value);\r\n    }\r\n\r\n    // TODO: Extend day limit\r\n    // TODO: Extend Rewards\r\n\r\n\r\n    // ----------------------\r\n    function stringToBytes32(string memory source) private pure returns (bytes32 result) {\r\n        bytes memory tempEmptyStringTest = bytes(source);\r\n        if (tempEmptyStringTest.length == 0) {\r\n          return 0x0;\r\n        }\r\n\r\n        assembly { // solhint-disable-line no-inline-assembly\r\n          result := mload(add(source, 32))\r\n        }\r\n    }\r\n\r\n    function withdrawLink() public  {\r\n        LinkTokenInterface link = LinkTokenInterface(chainlinkTokenAddress());\r\n        require(link.transfer(msg.sender, link.balanceOf(address(this))), \"Unable to transfer\");\r\n    }\r\n\r\n    function withdrawEth() public  {\r\n        msg.sender.transfer(getBalance());\r\n    }\r\n\r\n    function getLikesCount() public view returns(uint256){\r\n        return likesCount;\r\n    }\r\n}\r\n",
  "sourcePath": "C:/Users/xavis/Desktop/SponsorProject/angular-dapp/contracts/TikTokOffer.sol",
  "compiler": {
    "name": "solc",
    "version": "0.6.6+commit.6c089d02.Emscripten.clang"
  },
  "schemaVersion": "3.3.1",
  "updatedAt": "2020-10-28T17:05:46.725Z",
  "devdoc": {
    "methods": {}
  },
  "userdoc": {
    "methods": {
      "applyToOffer(string)": {
        "notice": "Allows users to introduce their VideoUrl and be able to participate"
      },
      "fulfillLikesCount(bytes32,uint256)": {
        "notice": "Callback function"
      },
      "requestLikes(address,string,string)": {
        "notice": "Asks for the number of likes and calls the callback function once finished with the result      * Params:      *      Oracle: Address of the Orcale contract that the node is listed - 0xfa42eB0C75B4593b4377D19b6f0edB4Abc705D54     JobId: Id of the Job we are willing to return - 98e390a5427946cfa113a14dbe839b21     VideoUrl: Link of the tiktok video we want to extract info from"
      }
    }
  }
}